{"contracts/StableAMMGitshock.sol":{"StableAMMGitshock":{"abi":[{"inputs":[{"internalType":"uint256[3]","name":"amounts","type":"uint256[3]"},{"internalType":"uint256","name":"minShares","type":"uint256"}],"name":"addLiquidity","outputs":[{"internalType":"uint256","name":"shares","type":"uint256"}],"stateMutability":"nonpayable","type":"function"},{"inputs":[{"internalType":"address","name":"","type":"address"}],"name":"balanceOf","outputs":[{"internalType":"uint256","name":"","type":"uint256"}],"stateMutability":"view","type":"function"},{"inputs":[{"internalType":"uint256","name":"","type":"uint256"}],"name":"balances","outputs":[{"internalType":"uint256","name":"","type":"uint256"}],"stateMutability":"view","type":"function"},{"inputs":[{"internalType":"uint256","name":"shares","type":"uint256"},{"internalType":"uint256","name":"i","type":"uint256"}],"name":"calcWithdrawOneToken","outputs":[{"internalType":"uint256","name":"dy","type":"uint256"},{"internalType":"uint256","name":"fee","type":"uint256"}],"stateMutability":"view","type":"function"},{"inputs":[],"name":"getVirtualPrice","outputs":[{"internalType":"uint256","name":"","type":"uint256"}],"stateMutability":"view","type":"function"},{"inputs":[{"internalType":"uint256","name":"shares","type":"uint256"},{"internalType":"uint256[3]","name":"minAmountsOut","type":"uint256[3]"}],"name":"removeLiquidity","outputs":[{"internalType":"uint256[3]","name":"amountsOut","type":"uint256[3]"}],"stateMutability":"nonpayable","type":"function"},{"inputs":[{"internalType":"uint256","name":"shares","type":"uint256"},{"internalType":"uint256","name":"i","type":"uint256"},{"internalType":"uint256","name":"minAmountOut","type":"uint256"}],"name":"removeLiquidityOneToken","outputs":[{"internalType":"uint256","name":"amountOut","type":"uint256"}],"stateMutability":"nonpayable","type":"function"},{"inputs":[{"internalType":"uint256","name":"i","type":"uint256"},{"internalType":"uint256","name":"j","type":"uint256"},{"internalType":"uint256","name":"dx","type":"uint256"},{"internalType":"uint256","name":"minDy","type":"uint256"}],"name":"swap","outputs":[{"internalType":"uint256","name":"dy","type":"uint256"}],"stateMutability":"nonpayable","type":"function"},{"inputs":[{"internalType":"uint256","name":"","type":"uint256"}],"name":"tokens","outputs":[{"internalType":"address","name":"","type":"address"}],"stateMutability":"view","type":"function"},{"inputs":[],"name":"totalSupply","outputs":[{"internalType":"uint256","name":"","type":"uint256"}],"stateMutability":"view","type":"function"}],"evm":{"bytecode":{"linkReferences":{},"object":"60e06040526001608090815264e8d4a5100060a081905260c0526200002890600390816200003d565b503480156200003657600080fd5b50620000a0565b826003810192821562000077579160200282015b8281111562000077578251829064ffffffffff1690559160200191906001019062000051565b506200008592915062000089565b5090565b5b808211156200008557600081556001016200008a565b61171e80620000b06000396000f3fe608060405234801561001057600080fd5b506004361061009e5760003560e01c806370a082311161006657806370a0823114610123578063a4bf044614610143578063a60dc3b114610156578063d035862c1461017e578063e25aa5fa1461019e57600080fd5b806318160ddd146100a35780634903b0d1146100bf5780634f64b2be146100d25780635673b02d146100fd5780637066b5b214610110575b600080fd5b6100ac60095481565b6040519081526020015b60405180910390f35b6100ac6100cd3660046113c5565b6101a6565b6100e56100e03660046113c5565b6101bd565b6040516001600160a01b0390911681526020016100b6565b6100ac61010b3660046113de565b6101dd565b6100ac61011e366004611410565b6104a9565b6100ac61013136600461143c565b600a6020526000908152604090205481565b6100ac610151366004611476565b6105b7565b6101696101643660046114a1565b610978565b604080519283526020830191909152016100b6565b61019161018c3660046114c3565b610990565b6040516100b691906114f0565b6100ac610b16565b600681600381106101b657600080fd5b0154905081565b600081600381106101cd57600080fd5b01546001600160a01b0316905081565b600083850361021b5760405162461bcd60e51b815260206004820152600560248201526434901e903560d91b60448201526064015b60405180910390fd5b6000856003811061022e5761022e611521565b01546040516323b872dd60e01b8152336004820152306024820152604481018590526001600160a01b03909116906323b872dd906064016020604051808303816000875af1158015610284573d6000803e3d6000fd5b505050506040513d601f19601f820116820180604052508101906102a89190611537565b5060006102b3610b66565b90506000600387600381106102ca576102ca611521565b01546102d6908661156f565b8288600381106102e8576102e8611521565b60200201516102f7919061158e565b9050600082876003811061030d5761030d611521565b60200201519050600061032289898587610bd9565b90506003886003811061033757610337611521565b0154600161034583856115a6565b61034f91906115a6565b61035991906115bd565b94506000620f424061036d61012c8861156f565b61037791906115bd565b905061038381876115a6565b9550868610156103c05760405162461bcd60e51b8152602060048201526008602482015267323c901e1036b4b760c11b6044820152606401610212565b8760068b600381106103d4576103d4611521565b0160008282546103e4919061158e565b9091555086905060068a600381106103fe576103fe611521565b01600082825461040e91906115a6565b9091555060009050896003811061042757610427611521565b015460405163a9059cbb60e01b8152336004820152602481018890526001600160a01b039091169063a9059cbb906044016020604051808303816000875af1158015610477573d6000803e3d6000fd5b505050506040513d601f19601f8201168201806040525081019061049b9190611537565b505050505050949350505050565b60006104b58484610d9b565b509050818110156104f45760405162461bcd60e51b815260206004820152600960248201526837baba101e1036b4b760b91b6044820152606401610212565b806006846003811061050857610508611521565b01600082825461051891906115a6565b9091555061052890503385610fcd565b6000836003811061053b5761053b611521565b015460405163a9059cbb60e01b8152336004820152602481018390526001600160a01b039091169063a9059cbb906044016020604051808303816000875af115801561058b573d6000803e3d6000fd5b505050506040513d601f19601f820116820180604052508101906105af9190611537565b509392505050565b60095460009081806105c7610b66565b905082156105db576105d881611017565b91505b6105e36113a7565b60005b600381101561073a57600088826003811061060357610603611521565b6020020135905080156106fa576000826003811061062357610623611521565b01546040516323b872dd60e01b8152336004820152306024820152604481018390526001600160a01b03909116906323b872dd906064016020604051808303816000875af1158015610679573d6000803e3d6000fd5b505050506040513d601f19601f8201168201806040525081019061069d9190611537565b50600382600381106106b1576106b1611521565b01546106bd908261156f565b8483600381106106cf576106cf611521565b60200201516106de919061158e565b8383600381106106f0576106f0611521565b6020020152610729565b83826003811061070c5761070c611521565b602002015183836003811061072357610723611521565b60200201525b50610733816115df565b90506105e6565b50600061074682611017565b90508381116107975760405162461bcd60e51b815260206004820152601960248201527f6c6971756964697479206469646e277420696e637265617365000000000000006044820152606401610212565b600085156108925760005b600381101561088157600086848784600381106107c1576107c1611521565b60200201516107d0919061156f565b6107da91906115bd565b905060006107fe8684600381106107f3576107f3611521565b6020020151836111ca565b9050620f424081610811600160036115a6565b61081c90600461156f565b610829600361012c61156f565b61083391906115bd565b61083d919061156f565b61084791906115bd565b86846003811061085957610859611521565b6020020181815161086a91906115a6565b90525061087a91508290506115df565b90506107a2565b5061088b83611017565b9050610895565b50805b60005b60038110156108f1578981600381106108b3576108b3611521565b6020020135600682600381106108cb576108cb611521565b0160008282546108db919061158e565b909155506108ea9050816115df565b9050610898565b50851561091f57848661090482846115a6565b61090e919061156f565b61091891906115bd565b9650610923565b8096505b878710156109625760405162461bcd60e51b815260206004820152600c60248201526b39b430b932b9901e1036b4b760a11b6044820152606401610212565b61096c33886111f6565b50505050505092915050565b6000806109858484610d9b565b915091509250929050565b6109986113a7565b60095460005b6003811015610b045760008286600684600381106109be576109be611521565b01546109ca919061156f565b6109d491906115bd565b90508482600381106109e8576109e8611521565b6020020135811015610a285760405162461bcd60e51b815260206004820152600960248201526837baba101e1036b4b760b91b6044820152606401610212565b8060068360038110610a3c57610a3c611521565b016000828254610a4c91906115a6565b90915550819050848360038110610a6557610a65611521565b602002015260008260038110610a7d57610a7d611521565b015460405163a9059cbb60e01b8152336004820152602481018390526001600160a01b039091169063a9059cbb906044016020604051808303816000875af1158015610acd573d6000803e3d6000fd5b505050506040513d601f19601f82011682018060405250810190610af19190611537565b505080610afd906115df565b905061099e565b50610b0f3385610fcd565b5092915050565b600080610b29610b24610b66565b611017565b6009549091508015610b5d5780610b426012600a6116dc565b610b4c908461156f565b610b5691906115bd565b9250505090565b60009250505090565b610b6e6113a7565b60005b6003811015610bd55760038160038110610b8d57610b8d611521565b015460068260038110610ba257610ba2611521565b0154610bae919061156f565b828260038110610bc057610bc0611521565b6020020152610bce816115df565b9050610b71565b5090565b6000806003610be96001826115a6565b610bf49060036116dc565b610c00906103e861156f565b610c0a919061156f565b90506000610c1784611017565b905060008181805b6003811015610c96578a8103610c3757889150610c58565b808a14610c8657878160038110610c5057610c50611521565b602002015191505b610c62828561158e565b9350610c6f82600361156f565b610c79868561156f565b610c8391906115bd565b92505b610c8f816115df565b9050610c1f565b50610ca285600361156f565b610cac858461156f565b610cb691906115bd565b91506000610cc486866115bd565b610cce908561158e565b9050600085815b60ff811015610d56578192508784836002610cf0919061156f565b610cfa919061158e565b610d0491906115a6565b86610d0f848061156f565b610d19919061158e565b610d2391906115bd565b91506001610d3183856111ca565b11610d4657509750610d939650505050505050565b610d4f816115df565b9050610cd5565b5060405162461bcd60e51b815260206004820152601160248201527079206469646e277420636f6e766572676560781b6044820152606401610212565b949350505050565b600954600090819081610dac610b66565b90506000610db982611017565b9050600083610dc8898461156f565b610dd291906115bd565b610ddc90836115a6565b90506000610deb888584611237565b9050600060038960038110610e0257610e02611521565b015482868b60038110610e1757610e17611521565b6020020151610e2691906115a6565b610e3091906115bd565b90506000805b6003811015610f53578a8103610e8557838686898460038110610e5b57610e5b611521565b6020020151610e6a919061156f565b610e7491906115bd565b610e7e91906115a6565b9150610ed6565b8585888360038110610e9957610e99611521565b6020020151610ea8919061156f565b610eb291906115bd565b878260038110610ec457610ec4611521565b6020020151610ed391906115a6565b91505b620f424082610ee7600160036115a6565b610ef290600461156f565b610eff600361012c61156f565b610f0991906115bd565b610f13919061156f565b610f1d91906115bd565b878260038110610f2f57610f2f611521565b60200201818151610f4091906115a6565b905250610f4c816115df565b9050610e36565b506000610f618b8887611237565b905060038b60038110610f7657610f76611521565b0154600182898e60038110610f8d57610f8d611521565b6020020151610f9c91906115a6565b610fa691906115a6565b610fb091906115bd565b9950610fbc8a846115a6565b985050505050505050509250929050565b6001600160a01b0382166000908152600a602052604081208054839290610ff59084906115a6565b92505081905550806009600082825461100e91906115a6565b90915550505050565b60008060036110276001826115a6565b6110329060036116dc565b61103e906103e861156f565b611048919061156f565b90506000805b600381101561108a5784816003811061106957611069611521565b6020020151611078908361158e565b9150611083816115df565b905061104e565b50806000805b60ff81101561118d578260005b60038110156110ee578881600381106110b8576110b8611521565b60200201516110c890600361156f565b6110d2868461156f565b6110dc91906115bd565b91506110e7816115df565b905061109d565b50839250806110ff6003600161158e565b611109919061156f565b846111156001896115a6565b61111f919061156f565b611129919061158e565b8461113583600361156f565b61113f888a61156f565b611149919061158e565b611153919061156f565b61115d91906115bd565b9350600161116b85856111ca565b1161117c5750919695505050505050565b50611186816115df565b9050611090565b5060405162461bcd60e51b815260206004820152601160248201527044206469646e277420636f6e766572676560781b6044820152606401610212565b6000818310156111e3576111de83836115a6565b6111ed565b6111ed82846115a6565b90505b92915050565b6001600160a01b0382166000908152600a60205260408120805483929061121e90849061158e565b92505081905550806009600082825461100e919061158e565b60008060036112476001826115a6565b6112529060036116dc565b61125e906103e861156f565b611268919061156f565b905060008381805b60038110156112e15788811461129e5787816003811061129257611292611521565b602002015191506112a3565b6112d1565b6112ad828561158e565b93506112ba82600361156f565b6112c4888561156f565b6112ce91906115bd565b92505b6112da816115df565b9050611270565b506112ed84600361156f565b6112f7878461156f565b61130191906115bd565b9150600061130f85886115bd565b611319908561158e565b9050600087815b60ff811015610d5657819250898483600261133b919061156f565b611345919061158e565b61134f91906115a6565b8661135a848061156f565b611364919061158e565b61136e91906115bd565b9150600161137c83856111ca565b11611390575096506113a095505050505050565b611399816115df565b9050611320565b9392505050565b60405180606001604052806003906020820280368337509192915050565b6000602082840312156113d757600080fd5b5035919050565b600080600080608085870312156113f457600080fd5b5050823594602084013594506040840135936060013592509050565b60008060006060848603121561142557600080fd5b505081359360208301359350604090920135919050565b60006020828403121561144e57600080fd5b81356001600160a01b03811681146113a057600080fd5b80606081018310156111f057600080fd5b6000806080838503121561148957600080fd5b6114938484611465565b946060939093013593505050565b600080604083850312156114b457600080fd5b50508035926020909101359150565b600080608083850312156114d657600080fd5b823591506114e78460208501611465565b90509250929050565b60608101818360005b60038110156115185781518352602092830192909101906001016114f9565b50505092915050565b634e487b7160e01b600052603260045260246000fd5b60006020828403121561154957600080fd5b815180151581146113a057600080fd5b634e487b7160e01b600052601160045260246000fd5b600081600019048311821515161561158957611589611559565b500290565b600082198211156115a1576115a1611559565b500190565b6000828210156115b8576115b8611559565b500390565b6000826115da57634e487b7160e01b600052601260045260246000fd5b500490565b6000600182016115f1576115f1611559565b5060010190565b600181815b8085111561163357816000190482111561161957611619611559565b8085161561162657918102915b93841c93908002906115fd565b509250929050565b60008261164a575060016111f0565b81611657575060006111f0565b816001811461166d576002811461167757611693565b60019150506111f0565b60ff84111561168857611688611559565b50506001821b6111f0565b5060208310610133831016604e8410600b84101617156116b6575081810a6111f0565b6116c083836115f8565b80600019048211156116d4576116d4611559565b029392505050565b60006111ed838361163b56fea26469706673582212203ba86d542cce8df44f5d2a2729e9e0c13c5583d469792aa39c9048f93cb5bf9364736f6c634300080d0033","opcodes":"PUSH1 0xE0 PUSH1 0x40 MSTORE PUSH1 0x1 PUSH1 0x80 SWAP1 DUP2 MSTORE PUSH5 0xE8D4A51000 PUSH1 0xA0 DUP2 SWAP1 MSTORE PUSH1 0xC0 MSTORE PUSH3 0x28 SWAP1 PUSH1 0x3 SWAP1 DUP2 PUSH3 0x3D JUMP JUMPDEST POP CALLVALUE DUP1 ISZERO PUSH3 0x36 JUMPI PUSH1 0x0 DUP1 REVERT JUMPDEST POP PUSH3 0xA0 JUMP JUMPDEST DUP3 PUSH1 0x3 DUP2 ADD SWAP3 DUP3 ISZERO PUSH3 0x77 JUMPI SWAP2 PUSH1 0x20 MUL DUP3 ADD JUMPDEST DUP3 DUP2 GT ISZERO PUSH3 0x77 JUMPI DUP3 MLOAD DUP3 SWAP1 PUSH5 0xFFFFFFFFFF AND SWAP1 SSTORE SWAP2 PUSH1 0x20 ADD SWAP2 SWAP1 PUSH1 0x1 ADD SWAP1 PUSH3 0x51 JUMP JUMPDEST POP PUSH3 0x85 SWAP3 SWAP2 POP PUSH3 0x89 JUMP JUMPDEST POP SWAP1 JUMP JUMPDEST JUMPDEST DUP1 DUP3 GT ISZERO PUSH3 0x85 JUMPI PUSH1 0x0 DUP2 SSTORE PUSH1 0x1 ADD PUSH3 0x8A JUMP JUMPDEST PUSH2 0x171E DUP1 PUSH3 0xB0 PUSH1 0x0 CODECOPY PUSH1 0x0 RETURN INVALID PUSH1 0x80 PUSH1 0x40 MSTORE CALLVALUE DUP1 ISZERO PUSH2 0x10 JUMPI PUSH1 0x0 DUP1 REVERT JUMPDEST POP PUSH1 0x4 CALLDATASIZE LT PUSH2 0x9E JUMPI PUSH1 0x0 CALLDATALOAD PUSH1 0xE0 SHR DUP1 PUSH4 0x70A08231 GT PUSH2 0x66 JUMPI DUP1 PUSH4 0x70A08231 EQ PUSH2 0x123 JUMPI DUP1 PUSH4 0xA4BF0446 EQ PUSH2 0x143 JUMPI DUP1 PUSH4 0xA60DC3B1 EQ PUSH2 0x156 JUMPI DUP1 PUSH4 0xD035862C EQ PUSH2 0x17E JUMPI DUP1 PUSH4 0xE25AA5FA EQ PUSH2 0x19E JUMPI PUSH1 0x0 DUP1 REVERT JUMPDEST DUP1 PUSH4 0x18160DDD EQ PUSH2 0xA3 JUMPI DUP1 PUSH4 0x4903B0D1 EQ PUSH2 0xBF JUMPI DUP1 PUSH4 0x4F64B2BE EQ PUSH2 0xD2 JUMPI DUP1 PUSH4 0x5673B02D EQ PUSH2 0xFD JUMPI DUP1 PUSH4 0x7066B5B2 EQ PUSH2 0x110 JUMPI JUMPDEST PUSH1 0x0 DUP1 REVERT JUMPDEST PUSH2 0xAC PUSH1 0x9 SLOAD DUP2 JUMP JUMPDEST PUSH1 0x40 MLOAD SWAP1 DUP2 MSTORE PUSH1 0x20 ADD JUMPDEST PUSH1 0x40 MLOAD DUP1 SWAP2 SUB SWAP1 RETURN JUMPDEST PUSH2 0xAC PUSH2 0xCD CALLDATASIZE PUSH1 0x4 PUSH2 0x13C5 JUMP JUMPDEST PUSH2 0x1A6 JUMP JUMPDEST PUSH2 0xE5 PUSH2 0xE0 CALLDATASIZE PUSH1 0x4 PUSH2 0x13C5 JUMP JUMPDEST PUSH2 0x1BD JUMP JUMPDEST PUSH1 0x40 MLOAD PUSH1 0x1 PUSH1 0x1 PUSH1 0xA0 SHL SUB SWAP1 SWAP2 AND DUP2 MSTORE PUSH1 0x20 ADD PUSH2 0xB6 JUMP JUMPDEST PUSH2 0xAC PUSH2 0x10B CALLDATASIZE PUSH1 0x4 PUSH2 0x13DE JUMP JUMPDEST PUSH2 0x1DD JUMP JUMPDEST PUSH2 0xAC PUSH2 0x11E CALLDATASIZE PUSH1 0x4 PUSH2 0x1410 JUMP JUMPDEST PUSH2 0x4A9 JUMP JUMPDEST PUSH2 0xAC PUSH2 0x131 CALLDATASIZE PUSH1 0x4 PUSH2 0x143C JUMP JUMPDEST PUSH1 0xA PUSH1 0x20 MSTORE PUSH1 0x0 SWAP1 DUP2 MSTORE PUSH1 0x40 SWAP1 KECCAK256 SLOAD DUP2 JUMP JUMPDEST PUSH2 0xAC PUSH2 0x151 CALLDATASIZE PUSH1 0x4 PUSH2 0x1476 JUMP JUMPDEST PUSH2 0x5B7 JUMP JUMPDEST PUSH2 0x169 PUSH2 0x164 CALLDATASIZE PUSH1 0x4 PUSH2 0x14A1 JUMP JUMPDEST PUSH2 0x978 JUMP JUMPDEST PUSH1 0x40 DUP1 MLOAD SWAP3 DUP4 MSTORE PUSH1 0x20 DUP4 ADD SWAP2 SWAP1 SWAP2 MSTORE ADD PUSH2 0xB6 JUMP JUMPDEST PUSH2 0x191 PUSH2 0x18C CALLDATASIZE PUSH1 0x4 PUSH2 0x14C3 JUMP JUMPDEST PUSH2 0x990 JUMP JUMPDEST PUSH1 0x40 MLOAD PUSH2 0xB6 SWAP2 SWAP1 PUSH2 0x14F0 JUMP JUMPDEST PUSH2 0xAC PUSH2 0xB16 JUMP JUMPDEST PUSH1 0x6 DUP2 PUSH1 0x3 DUP2 LT PUSH2 0x1B6 JUMPI PUSH1 0x0 DUP1 REVERT JUMPDEST ADD SLOAD SWAP1 POP DUP2 JUMP JUMPDEST PUSH1 0x0 DUP2 PUSH1 0x3 DUP2 LT PUSH2 0x1CD JUMPI PUSH1 0x0 DUP1 REVERT JUMPDEST ADD SLOAD PUSH1 0x1 PUSH1 0x1 PUSH1 0xA0 SHL SUB AND SWAP1 POP DUP2 JUMP JUMPDEST PUSH1 0x0 DUP4 DUP6 SUB PUSH2 0x21B JUMPI PUSH1 0x40 MLOAD PUSH3 0x461BCD PUSH1 0xE5 SHL DUP2 MSTORE PUSH1 0x20 PUSH1 0x4 DUP3 ADD MSTORE PUSH1 0x5 PUSH1 0x24 DUP3 ADD MSTORE PUSH5 0x34901E9035 PUSH1 0xD9 SHL PUSH1 0x44 DUP3 ADD MSTORE PUSH1 0x64 ADD JUMPDEST PUSH1 0x40 MLOAD DUP1 SWAP2 SUB SWAP1 REVERT JUMPDEST PUSH1 0x0 DUP6 PUSH1 0x3 DUP2 LT PUSH2 0x22E JUMPI PUSH2 0x22E PUSH2 0x1521 JUMP JUMPDEST ADD SLOAD PUSH1 0x40 MLOAD PUSH4 0x23B872DD PUSH1 0xE0 SHL DUP2 MSTORE CALLER PUSH1 0x4 DUP3 ADD MSTORE ADDRESS PUSH1 0x24 DUP3 ADD MSTORE PUSH1 0x44 DUP2 ADD DUP6 SWAP1 MSTORE PUSH1 0x1 PUSH1 0x1 PUSH1 0xA0 SHL SUB SWAP1 SWAP2 AND SWAP1 PUSH4 0x23B872DD SWAP1 PUSH1 0x64 ADD PUSH1 0x20 PUSH1 0x40 MLOAD DUP1 DUP4 SUB DUP2 PUSH1 0x0 DUP8 GAS CALL ISZERO DUP1 ISZERO PUSH2 0x284 JUMPI RETURNDATASIZE PUSH1 0x0 DUP1 RETURNDATACOPY RETURNDATASIZE PUSH1 0x0 REVERT JUMPDEST POP POP POP POP PUSH1 0x40 MLOAD RETURNDATASIZE PUSH1 0x1F NOT PUSH1 0x1F DUP3 ADD AND DUP3 ADD DUP1 PUSH1 0x40 MSTORE POP DUP2 ADD SWAP1 PUSH2 0x2A8 SWAP2 SWAP1 PUSH2 0x1537 JUMP JUMPDEST POP PUSH1 0x0 PUSH2 0x2B3 PUSH2 0xB66 JUMP JUMPDEST SWAP1 POP PUSH1 0x0 PUSH1 0x3 DUP8 PUSH1 0x3 DUP2 LT PUSH2 0x2CA JUMPI PUSH2 0x2CA PUSH2 0x1521 JUMP JUMPDEST ADD SLOAD PUSH2 0x2D6 SWAP1 DUP7 PUSH2 0x156F JUMP JUMPDEST DUP3 DUP9 PUSH1 0x3 DUP2 LT PUSH2 0x2E8 JUMPI PUSH2 0x2E8 PUSH2 0x1521 JUMP JUMPDEST PUSH1 0x20 MUL ADD MLOAD PUSH2 0x2F7 SWAP2 SWAP1 PUSH2 0x158E JUMP JUMPDEST SWAP1 POP PUSH1 0x0 DUP3 DUP8 PUSH1 0x3 DUP2 LT PUSH2 0x30D JUMPI PUSH2 0x30D PUSH2 0x1521 JUMP JUMPDEST PUSH1 0x20 MUL ADD MLOAD SWAP1 POP PUSH1 0x0 PUSH2 0x322 DUP10 DUP10 DUP6 DUP8 PUSH2 0xBD9 JUMP JUMPDEST SWAP1 POP PUSH1 0x3 DUP9 PUSH1 0x3 DUP2 LT PUSH2 0x337 JUMPI PUSH2 0x337 PUSH2 0x1521 JUMP JUMPDEST ADD SLOAD PUSH1 0x1 PUSH2 0x345 DUP4 DUP6 PUSH2 0x15A6 JUMP JUMPDEST PUSH2 0x34F SWAP2 SWAP1 PUSH2 0x15A6 JUMP JUMPDEST PUSH2 0x359 SWAP2 SWAP1 PUSH2 0x15BD JUMP JUMPDEST SWAP5 POP PUSH1 0x0 PUSH3 0xF4240 PUSH2 0x36D PUSH2 0x12C DUP9 PUSH2 0x156F JUMP JUMPDEST PUSH2 0x377 SWAP2 SWAP1 PUSH2 0x15BD JUMP JUMPDEST SWAP1 POP PUSH2 0x383 DUP2 DUP8 PUSH2 0x15A6 JUMP JUMPDEST SWAP6 POP DUP7 DUP7 LT ISZERO PUSH2 0x3C0 JUMPI PUSH1 0x40 MLOAD PUSH3 0x461BCD PUSH1 0xE5 SHL DUP2 MSTORE PUSH1 0x20 PUSH1 0x4 DUP3 ADD MSTORE PUSH1 0x8 PUSH1 0x24 DUP3 ADD MSTORE PUSH8 0x323C901E1036B4B7 PUSH1 0xC1 SHL PUSH1 0x44 DUP3 ADD MSTORE PUSH1 0x64 ADD PUSH2 0x212 JUMP JUMPDEST DUP8 PUSH1 0x6 DUP12 PUSH1 0x3 DUP2 LT PUSH2 0x3D4 JUMPI PUSH2 0x3D4 PUSH2 0x1521 JUMP JUMPDEST ADD PUSH1 0x0 DUP3 DUP3 SLOAD PUSH2 0x3E4 SWAP2 SWAP1 PUSH2 0x158E JUMP JUMPDEST SWAP1 SWAP2 SSTORE POP DUP7 SWAP1 POP PUSH1 0x6 DUP11 PUSH1 0x3 DUP2 LT PUSH2 0x3FE JUMPI PUSH2 0x3FE PUSH2 0x1521 JUMP JUMPDEST ADD PUSH1 0x0 DUP3 DUP3 SLOAD PUSH2 0x40E SWAP2 SWAP1 PUSH2 0x15A6 JUMP JUMPDEST SWAP1 SWAP2 SSTORE POP PUSH1 0x0 SWAP1 POP DUP10 PUSH1 0x3 DUP2 LT PUSH2 0x427 JUMPI PUSH2 0x427 PUSH2 0x1521 JUMP JUMPDEST ADD SLOAD PUSH1 0x40 MLOAD PUSH4 0xA9059CBB PUSH1 0xE0 SHL DUP2 MSTORE CALLER PUSH1 0x4 DUP3 ADD MSTORE PUSH1 0x24 DUP2 ADD DUP9 SWAP1 MSTORE PUSH1 0x1 PUSH1 0x1 PUSH1 0xA0 SHL SUB SWAP1 SWAP2 AND SWAP1 PUSH4 0xA9059CBB SWAP1 PUSH1 0x44 ADD PUSH1 0x20 PUSH1 0x40 MLOAD DUP1 DUP4 SUB DUP2 PUSH1 0x0 DUP8 GAS CALL ISZERO DUP1 ISZERO PUSH2 0x477 JUMPI RETURNDATASIZE PUSH1 0x0 DUP1 RETURNDATACOPY RETURNDATASIZE PUSH1 0x0 REVERT JUMPDEST POP POP POP POP PUSH1 0x40 MLOAD RETURNDATASIZE PUSH1 0x1F NOT PUSH1 0x1F DUP3 ADD AND DUP3 ADD DUP1 PUSH1 0x40 MSTORE POP DUP2 ADD SWAP1 PUSH2 0x49B SWAP2 SWAP1 PUSH2 0x1537 JUMP JUMPDEST POP POP POP POP POP POP SWAP5 SWAP4 POP POP POP POP JUMP JUMPDEST PUSH1 0x0 PUSH2 0x4B5 DUP5 DUP5 PUSH2 0xD9B JUMP JUMPDEST POP SWAP1 POP DUP2 DUP2 LT ISZERO PUSH2 0x4F4 JUMPI PUSH1 0x40 MLOAD PUSH3 0x461BCD PUSH1 0xE5 SHL DUP2 MSTORE PUSH1 0x20 PUSH1 0x4 DUP3 ADD MSTORE PUSH1 0x9 PUSH1 0x24 DUP3 ADD MSTORE PUSH9 0x37BABA101E1036B4B7 PUSH1 0xB9 SHL PUSH1 0x44 DUP3 ADD MSTORE PUSH1 0x64 ADD PUSH2 0x212 JUMP JUMPDEST DUP1 PUSH1 0x6 DUP5 PUSH1 0x3 DUP2 LT PUSH2 0x508 JUMPI PUSH2 0x508 PUSH2 0x1521 JUMP JUMPDEST ADD PUSH1 0x0 DUP3 DUP3 SLOAD PUSH2 0x518 SWAP2 SWAP1 PUSH2 0x15A6 JUMP JUMPDEST SWAP1 SWAP2 SSTORE POP PUSH2 0x528 SWAP1 POP CALLER DUP6 PUSH2 0xFCD JUMP JUMPDEST PUSH1 0x0 DUP4 PUSH1 0x3 DUP2 LT PUSH2 0x53B JUMPI PUSH2 0x53B PUSH2 0x1521 JUMP JUMPDEST ADD SLOAD PUSH1 0x40 MLOAD PUSH4 0xA9059CBB PUSH1 0xE0 SHL DUP2 MSTORE CALLER PUSH1 0x4 DUP3 ADD MSTORE PUSH1 0x24 DUP2 ADD DUP4 SWAP1 MSTORE PUSH1 0x1 PUSH1 0x1 PUSH1 0xA0 SHL SUB SWAP1 SWAP2 AND SWAP1 PUSH4 0xA9059CBB SWAP1 PUSH1 0x44 ADD PUSH1 0x20 PUSH1 0x40 MLOAD DUP1 DUP4 SUB DUP2 PUSH1 0x0 DUP8 GAS CALL ISZERO DUP1 ISZERO PUSH2 0x58B JUMPI RETURNDATASIZE PUSH1 0x0 DUP1 RETURNDATACOPY RETURNDATASIZE PUSH1 0x0 REVERT JUMPDEST POP POP POP POP PUSH1 0x40 MLOAD RETURNDATASIZE PUSH1 0x1F NOT PUSH1 0x1F DUP3 ADD AND DUP3 ADD DUP1 PUSH1 0x40 MSTORE POP DUP2 ADD SWAP1 PUSH2 0x5AF SWAP2 SWAP1 PUSH2 0x1537 JUMP JUMPDEST POP SWAP4 SWAP3 POP POP POP JUMP JUMPDEST PUSH1 0x9 SLOAD PUSH1 0x0 SWAP1 DUP2 DUP1 PUSH2 0x5C7 PUSH2 0xB66 JUMP JUMPDEST SWAP1 POP DUP3 ISZERO PUSH2 0x5DB JUMPI PUSH2 0x5D8 DUP2 PUSH2 0x1017 JUMP JUMPDEST SWAP2 POP JUMPDEST PUSH2 0x5E3 PUSH2 0x13A7 JUMP JUMPDEST PUSH1 0x0 JUMPDEST PUSH1 0x3 DUP2 LT ISZERO PUSH2 0x73A JUMPI PUSH1 0x0 DUP9 DUP3 PUSH1 0x3 DUP2 LT PUSH2 0x603 JUMPI PUSH2 0x603 PUSH2 0x1521 JUMP JUMPDEST PUSH1 0x20 MUL ADD CALLDATALOAD SWAP1 POP DUP1 ISZERO PUSH2 0x6FA JUMPI PUSH1 0x0 DUP3 PUSH1 0x3 DUP2 LT PUSH2 0x623 JUMPI PUSH2 0x623 PUSH2 0x1521 JUMP JUMPDEST ADD SLOAD PUSH1 0x40 MLOAD PUSH4 0x23B872DD PUSH1 0xE0 SHL DUP2 MSTORE CALLER PUSH1 0x4 DUP3 ADD MSTORE ADDRESS PUSH1 0x24 DUP3 ADD MSTORE PUSH1 0x44 DUP2 ADD DUP4 SWAP1 MSTORE PUSH1 0x1 PUSH1 0x1 PUSH1 0xA0 SHL SUB SWAP1 SWAP2 AND SWAP1 PUSH4 0x23B872DD SWAP1 PUSH1 0x64 ADD PUSH1 0x20 PUSH1 0x40 MLOAD DUP1 DUP4 SUB DUP2 PUSH1 0x0 DUP8 GAS CALL ISZERO DUP1 ISZERO PUSH2 0x679 JUMPI RETURNDATASIZE PUSH1 0x0 DUP1 RETURNDATACOPY RETURNDATASIZE PUSH1 0x0 REVERT JUMPDEST POP POP POP POP PUSH1 0x40 MLOAD RETURNDATASIZE PUSH1 0x1F NOT PUSH1 0x1F DUP3 ADD AND DUP3 ADD DUP1 PUSH1 0x40 MSTORE POP DUP2 ADD SWAP1 PUSH2 0x69D SWAP2 SWAP1 PUSH2 0x1537 JUMP JUMPDEST POP PUSH1 0x3 DUP3 PUSH1 0x3 DUP2 LT PUSH2 0x6B1 JUMPI PUSH2 0x6B1 PUSH2 0x1521 JUMP JUMPDEST ADD SLOAD PUSH2 0x6BD SWAP1 DUP3 PUSH2 0x156F JUMP JUMPDEST DUP5 DUP4 PUSH1 0x3 DUP2 LT PUSH2 0x6CF JUMPI PUSH2 0x6CF PUSH2 0x1521 JUMP JUMPDEST PUSH1 0x20 MUL ADD MLOAD PUSH2 0x6DE SWAP2 SWAP1 PUSH2 0x158E JUMP JUMPDEST DUP4 DUP4 PUSH1 0x3 DUP2 LT PUSH2 0x6F0 JUMPI PUSH2 0x6F0 PUSH2 0x1521 JUMP JUMPDEST PUSH1 0x20 MUL ADD MSTORE PUSH2 0x729 JUMP JUMPDEST DUP4 DUP3 PUSH1 0x3 DUP2 LT PUSH2 0x70C JUMPI PUSH2 0x70C PUSH2 0x1521 JUMP JUMPDEST PUSH1 0x20 MUL ADD MLOAD DUP4 DUP4 PUSH1 0x3 DUP2 LT PUSH2 0x723 JUMPI PUSH2 0x723 PUSH2 0x1521 JUMP JUMPDEST PUSH1 0x20 MUL ADD MSTORE JUMPDEST POP PUSH2 0x733 DUP2 PUSH2 0x15DF JUMP JUMPDEST SWAP1 POP PUSH2 0x5E6 JUMP JUMPDEST POP PUSH1 0x0 PUSH2 0x746 DUP3 PUSH2 0x1017 JUMP JUMPDEST SWAP1 POP DUP4 DUP2 GT PUSH2 0x797 JUMPI PUSH1 0x40 MLOAD PUSH3 0x461BCD PUSH1 0xE5 SHL DUP2 MSTORE PUSH1 0x20 PUSH1 0x4 DUP3 ADD MSTORE PUSH1 0x19 PUSH1 0x24 DUP3 ADD MSTORE PUSH32 0x6C6971756964697479206469646E277420696E63726561736500000000000000 PUSH1 0x44 DUP3 ADD MSTORE PUSH1 0x64 ADD PUSH2 0x212 JUMP JUMPDEST PUSH1 0x0 DUP6 ISZERO PUSH2 0x892 JUMPI PUSH1 0x0 JUMPDEST PUSH1 0x3 DUP2 LT ISZERO PUSH2 0x881 JUMPI PUSH1 0x0 DUP7 DUP5 DUP8 DUP5 PUSH1 0x3 DUP2 LT PUSH2 0x7C1 JUMPI PUSH2 0x7C1 PUSH2 0x1521 JUMP JUMPDEST PUSH1 0x20 MUL ADD MLOAD PUSH2 0x7D0 SWAP2 SWAP1 PUSH2 0x156F JUMP JUMPDEST PUSH2 0x7DA SWAP2 SWAP1 PUSH2 0x15BD JUMP JUMPDEST SWAP1 POP PUSH1 0x0 PUSH2 0x7FE DUP7 DUP5 PUSH1 0x3 DUP2 LT PUSH2 0x7F3 JUMPI PUSH2 0x7F3 PUSH2 0x1521 JUMP JUMPDEST PUSH1 0x20 MUL ADD MLOAD DUP4 PUSH2 0x11CA JUMP JUMPDEST SWAP1 POP PUSH3 0xF4240 DUP2 PUSH2 0x811 PUSH1 0x1 PUSH1 0x3 PUSH2 0x15A6 JUMP JUMPDEST PUSH2 0x81C SWAP1 PUSH1 0x4 PUSH2 0x156F JUMP JUMPDEST PUSH2 0x829 PUSH1 0x3 PUSH2 0x12C PUSH2 0x156F JUMP JUMPDEST PUSH2 0x833 SWAP2 SWAP1 PUSH2 0x15BD JUMP JUMPDEST PUSH2 0x83D SWAP2 SWAP1 PUSH2 0x156F JUMP JUMPDEST PUSH2 0x847 SWAP2 SWAP1 PUSH2 0x15BD JUMP JUMPDEST DUP7 DUP5 PUSH1 0x3 DUP2 LT PUSH2 0x859 JUMPI PUSH2 0x859 PUSH2 0x1521 JUMP JUMPDEST PUSH1 0x20 MUL ADD DUP2 DUP2 MLOAD PUSH2 0x86A SWAP2 SWAP1 PUSH2 0x15A6 JUMP JUMPDEST SWAP1 MSTORE POP PUSH2 0x87A SWAP2 POP DUP3 SWAP1 POP PUSH2 0x15DF JUMP JUMPDEST SWAP1 POP PUSH2 0x7A2 JUMP JUMPDEST POP PUSH2 0x88B DUP4 PUSH2 0x1017 JUMP JUMPDEST SWAP1 POP PUSH2 0x895 JUMP JUMPDEST POP DUP1 JUMPDEST PUSH1 0x0 JUMPDEST PUSH1 0x3 DUP2 LT ISZERO PUSH2 0x8F1 JUMPI DUP10 DUP2 PUSH1 0x3 DUP2 LT PUSH2 0x8B3 JUMPI PUSH2 0x8B3 PUSH2 0x1521 JUMP JUMPDEST PUSH1 0x20 MUL ADD CALLDATALOAD PUSH1 0x6 DUP3 PUSH1 0x3 DUP2 LT PUSH2 0x8CB JUMPI PUSH2 0x8CB PUSH2 0x1521 JUMP JUMPDEST ADD PUSH1 0x0 DUP3 DUP3 SLOAD PUSH2 0x8DB SWAP2 SWAP1 PUSH2 0x158E JUMP JUMPDEST SWAP1 SWAP2 SSTORE POP PUSH2 0x8EA SWAP1 POP DUP2 PUSH2 0x15DF JUMP JUMPDEST SWAP1 POP PUSH2 0x898 JUMP JUMPDEST POP DUP6 ISZERO PUSH2 0x91F JUMPI DUP5 DUP7 PUSH2 0x904 DUP3 DUP5 PUSH2 0x15A6 JUMP JUMPDEST PUSH2 0x90E SWAP2 SWAP1 PUSH2 0x156F JUMP JUMPDEST PUSH2 0x918 SWAP2 SWAP1 PUSH2 0x15BD JUMP JUMPDEST SWAP7 POP PUSH2 0x923 JUMP JUMPDEST DUP1 SWAP7 POP JUMPDEST DUP8 DUP8 LT ISZERO PUSH2 0x962 JUMPI PUSH1 0x40 MLOAD PUSH3 0x461BCD PUSH1 0xE5 SHL DUP2 MSTORE PUSH1 0x20 PUSH1 0x4 DUP3 ADD MSTORE PUSH1 0xC PUSH1 0x24 DUP3 ADD MSTORE PUSH12 0x39B430B932B9901E1036B4B7 PUSH1 0xA1 SHL PUSH1 0x44 DUP3 ADD MSTORE PUSH1 0x64 ADD PUSH2 0x212 JUMP JUMPDEST PUSH2 0x96C CALLER DUP9 PUSH2 0x11F6 JUMP JUMPDEST POP POP POP POP POP POP SWAP3 SWAP2 POP POP JUMP JUMPDEST PUSH1 0x0 DUP1 PUSH2 0x985 DUP5 DUP5 PUSH2 0xD9B JUMP JUMPDEST SWAP2 POP SWAP2 POP SWAP3 POP SWAP3 SWAP1 POP JUMP JUMPDEST PUSH2 0x998 PUSH2 0x13A7 JUMP JUMPDEST PUSH1 0x9 SLOAD PUSH1 0x0 JUMPDEST PUSH1 0x3 DUP2 LT ISZERO PUSH2 0xB04 JUMPI PUSH1 0x0 DUP3 DUP7 PUSH1 0x6 DUP5 PUSH1 0x3 DUP2 LT PUSH2 0x9BE JUMPI PUSH2 0x9BE PUSH2 0x1521 JUMP JUMPDEST ADD SLOAD PUSH2 0x9CA SWAP2 SWAP1 PUSH2 0x156F JUMP JUMPDEST PUSH2 0x9D4 SWAP2 SWAP1 PUSH2 0x15BD JUMP JUMPDEST SWAP1 POP DUP5 DUP3 PUSH1 0x3 DUP2 LT PUSH2 0x9E8 JUMPI PUSH2 0x9E8 PUSH2 0x1521 JUMP JUMPDEST PUSH1 0x20 MUL ADD CALLDATALOAD DUP2 LT ISZERO PUSH2 0xA28 JUMPI PUSH1 0x40 MLOAD PUSH3 0x461BCD PUSH1 0xE5 SHL DUP2 MSTORE PUSH1 0x20 PUSH1 0x4 DUP3 ADD MSTORE PUSH1 0x9 PUSH1 0x24 DUP3 ADD MSTORE PUSH9 0x37BABA101E1036B4B7 PUSH1 0xB9 SHL PUSH1 0x44 DUP3 ADD MSTORE PUSH1 0x64 ADD PUSH2 0x212 JUMP JUMPDEST DUP1 PUSH1 0x6 DUP4 PUSH1 0x3 DUP2 LT PUSH2 0xA3C JUMPI PUSH2 0xA3C PUSH2 0x1521 JUMP JUMPDEST ADD PUSH1 0x0 DUP3 DUP3 SLOAD PUSH2 0xA4C SWAP2 SWAP1 PUSH2 0x15A6 JUMP JUMPDEST SWAP1 SWAP2 SSTORE POP DUP2 SWAP1 POP DUP5 DUP4 PUSH1 0x3 DUP2 LT PUSH2 0xA65 JUMPI PUSH2 0xA65 PUSH2 0x1521 JUMP JUMPDEST PUSH1 0x20 MUL ADD MSTORE PUSH1 0x0 DUP3 PUSH1 0x3 DUP2 LT PUSH2 0xA7D JUMPI PUSH2 0xA7D PUSH2 0x1521 JUMP JUMPDEST ADD SLOAD PUSH1 0x40 MLOAD PUSH4 0xA9059CBB PUSH1 0xE0 SHL DUP2 MSTORE CALLER PUSH1 0x4 DUP3 ADD MSTORE PUSH1 0x24 DUP2 ADD DUP4 SWAP1 MSTORE PUSH1 0x1 PUSH1 0x1 PUSH1 0xA0 SHL SUB SWAP1 SWAP2 AND SWAP1 PUSH4 0xA9059CBB SWAP1 PUSH1 0x44 ADD PUSH1 0x20 PUSH1 0x40 MLOAD DUP1 DUP4 SUB DUP2 PUSH1 0x0 DUP8 GAS CALL ISZERO DUP1 ISZERO PUSH2 0xACD JUMPI RETURNDATASIZE PUSH1 0x0 DUP1 RETURNDATACOPY RETURNDATASIZE PUSH1 0x0 REVERT JUMPDEST POP POP POP POP PUSH1 0x40 MLOAD RETURNDATASIZE PUSH1 0x1F NOT PUSH1 0x1F DUP3 ADD AND DUP3 ADD DUP1 PUSH1 0x40 MSTORE POP DUP2 ADD SWAP1 PUSH2 0xAF1 SWAP2 SWAP1 PUSH2 0x1537 JUMP JUMPDEST POP POP DUP1 PUSH2 0xAFD SWAP1 PUSH2 0x15DF JUMP JUMPDEST SWAP1 POP PUSH2 0x99E JUMP JUMPDEST POP PUSH2 0xB0F CALLER DUP6 PUSH2 0xFCD JUMP JUMPDEST POP SWAP3 SWAP2 POP POP JUMP JUMPDEST PUSH1 0x0 DUP1 PUSH2 0xB29 PUSH2 0xB24 PUSH2 0xB66 JUMP JUMPDEST PUSH2 0x1017 JUMP JUMPDEST PUSH1 0x9 SLOAD SWAP1 SWAP2 POP DUP1 ISZERO PUSH2 0xB5D JUMPI DUP1 PUSH2 0xB42 PUSH1 0x12 PUSH1 0xA PUSH2 0x16DC JUMP JUMPDEST PUSH2 0xB4C SWAP1 DUP5 PUSH2 0x156F JUMP JUMPDEST PUSH2 0xB56 SWAP2 SWAP1 PUSH2 0x15BD JUMP JUMPDEST SWAP3 POP POP POP SWAP1 JUMP JUMPDEST PUSH1 0x0 SWAP3 POP POP POP SWAP1 JUMP JUMPDEST PUSH2 0xB6E PUSH2 0x13A7 JUMP JUMPDEST PUSH1 0x0 JUMPDEST PUSH1 0x3 DUP2 LT ISZERO PUSH2 0xBD5 JUMPI PUSH1 0x3 DUP2 PUSH1 0x3 DUP2 LT PUSH2 0xB8D JUMPI PUSH2 0xB8D PUSH2 0x1521 JUMP JUMPDEST ADD SLOAD PUSH1 0x6 DUP3 PUSH1 0x3 DUP2 LT PUSH2 0xBA2 JUMPI PUSH2 0xBA2 PUSH2 0x1521 JUMP JUMPDEST ADD SLOAD PUSH2 0xBAE SWAP2 SWAP1 PUSH2 0x156F JUMP JUMPDEST DUP3 DUP3 PUSH1 0x3 DUP2 LT PUSH2 0xBC0 JUMPI PUSH2 0xBC0 PUSH2 0x1521 JUMP JUMPDEST PUSH1 0x20 MUL ADD MSTORE PUSH2 0xBCE DUP2 PUSH2 0x15DF JUMP JUMPDEST SWAP1 POP PUSH2 0xB71 JUMP JUMPDEST POP SWAP1 JUMP JUMPDEST PUSH1 0x0 DUP1 PUSH1 0x3 PUSH2 0xBE9 PUSH1 0x1 DUP3 PUSH2 0x15A6 JUMP JUMPDEST PUSH2 0xBF4 SWAP1 PUSH1 0x3 PUSH2 0x16DC JUMP JUMPDEST PUSH2 0xC00 SWAP1 PUSH2 0x3E8 PUSH2 0x156F JUMP JUMPDEST PUSH2 0xC0A SWAP2 SWAP1 PUSH2 0x156F JUMP JUMPDEST SWAP1 POP PUSH1 0x0 PUSH2 0xC17 DUP5 PUSH2 0x1017 JUMP JUMPDEST SWAP1 POP PUSH1 0x0 DUP2 DUP2 DUP1 JUMPDEST PUSH1 0x3 DUP2 LT ISZERO PUSH2 0xC96 JUMPI DUP11 DUP2 SUB PUSH2 0xC37 JUMPI DUP9 SWAP2 POP PUSH2 0xC58 JUMP JUMPDEST DUP1 DUP11 EQ PUSH2 0xC86 JUMPI DUP8 DUP2 PUSH1 0x3 DUP2 LT PUSH2 0xC50 JUMPI PUSH2 0xC50 PUSH2 0x1521 JUMP JUMPDEST PUSH1 0x20 MUL ADD MLOAD SWAP2 POP JUMPDEST PUSH2 0xC62 DUP3 DUP6 PUSH2 0x158E JUMP JUMPDEST SWAP4 POP PUSH2 0xC6F DUP3 PUSH1 0x3 PUSH2 0x156F JUMP JUMPDEST PUSH2 0xC79 DUP7 DUP6 PUSH2 0x156F JUMP JUMPDEST PUSH2 0xC83 SWAP2 SWAP1 PUSH2 0x15BD JUMP JUMPDEST SWAP3 POP JUMPDEST PUSH2 0xC8F DUP2 PUSH2 0x15DF JUMP JUMPDEST SWAP1 POP PUSH2 0xC1F JUMP JUMPDEST POP PUSH2 0xCA2 DUP6 PUSH1 0x3 PUSH2 0x156F JUMP JUMPDEST PUSH2 0xCAC DUP6 DUP5 PUSH2 0x156F JUMP JUMPDEST PUSH2 0xCB6 SWAP2 SWAP1 PUSH2 0x15BD JUMP JUMPDEST SWAP2 POP PUSH1 0x0 PUSH2 0xCC4 DUP7 DUP7 PUSH2 0x15BD JUMP JUMPDEST PUSH2 0xCCE SWAP1 DUP6 PUSH2 0x158E JUMP JUMPDEST SWAP1 POP PUSH1 0x0 DUP6 DUP2 JUMPDEST PUSH1 0xFF DUP2 LT ISZERO PUSH2 0xD56 JUMPI DUP2 SWAP3 POP DUP8 DUP5 DUP4 PUSH1 0x2 PUSH2 0xCF0 SWAP2 SWAP1 PUSH2 0x156F JUMP JUMPDEST PUSH2 0xCFA SWAP2 SWAP1 PUSH2 0x158E JUMP JUMPDEST PUSH2 0xD04 SWAP2 SWAP1 PUSH2 0x15A6 JUMP JUMPDEST DUP7 PUSH2 0xD0F DUP5 DUP1 PUSH2 0x156F JUMP JUMPDEST PUSH2 0xD19 SWAP2 SWAP1 PUSH2 0x158E JUMP JUMPDEST PUSH2 0xD23 SWAP2 SWAP1 PUSH2 0x15BD JUMP JUMPDEST SWAP2 POP PUSH1 0x1 PUSH2 0xD31 DUP4 DUP6 PUSH2 0x11CA JUMP JUMPDEST GT PUSH2 0xD46 JUMPI POP SWAP8 POP PUSH2 0xD93 SWAP7 POP POP POP POP POP POP POP JUMP JUMPDEST PUSH2 0xD4F DUP2 PUSH2 0x15DF JUMP JUMPDEST SWAP1 POP PUSH2 0xCD5 JUMP JUMPDEST POP PUSH1 0x40 MLOAD PUSH3 0x461BCD PUSH1 0xE5 SHL DUP2 MSTORE PUSH1 0x20 PUSH1 0x4 DUP3 ADD MSTORE PUSH1 0x11 PUSH1 0x24 DUP3 ADD MSTORE PUSH17 0x79206469646E277420636F6E7665726765 PUSH1 0x78 SHL PUSH1 0x44 DUP3 ADD MSTORE PUSH1 0x64 ADD PUSH2 0x212 JUMP JUMPDEST SWAP5 SWAP4 POP POP POP POP JUMP JUMPDEST PUSH1 0x9 SLOAD PUSH1 0x0 SWAP1 DUP2 SWAP1 DUP2 PUSH2 0xDAC PUSH2 0xB66 JUMP JUMPDEST SWAP1 POP PUSH1 0x0 PUSH2 0xDB9 DUP3 PUSH2 0x1017 JUMP JUMPDEST SWAP1 POP PUSH1 0x0 DUP4 PUSH2 0xDC8 DUP10 DUP5 PUSH2 0x156F JUMP JUMPDEST PUSH2 0xDD2 SWAP2 SWAP1 PUSH2 0x15BD JUMP JUMPDEST PUSH2 0xDDC SWAP1 DUP4 PUSH2 0x15A6 JUMP JUMPDEST SWAP1 POP PUSH1 0x0 PUSH2 0xDEB DUP9 DUP6 DUP5 PUSH2 0x1237 JUMP JUMPDEST SWAP1 POP PUSH1 0x0 PUSH1 0x3 DUP10 PUSH1 0x3 DUP2 LT PUSH2 0xE02 JUMPI PUSH2 0xE02 PUSH2 0x1521 JUMP JUMPDEST ADD SLOAD DUP3 DUP7 DUP12 PUSH1 0x3 DUP2 LT PUSH2 0xE17 JUMPI PUSH2 0xE17 PUSH2 0x1521 JUMP JUMPDEST PUSH1 0x20 MUL ADD MLOAD PUSH2 0xE26 SWAP2 SWAP1 PUSH2 0x15A6 JUMP JUMPDEST PUSH2 0xE30 SWAP2 SWAP1 PUSH2 0x15BD JUMP JUMPDEST SWAP1 POP PUSH1 0x0 DUP1 JUMPDEST PUSH1 0x3 DUP2 LT ISZERO PUSH2 0xF53 JUMPI DUP11 DUP2 SUB PUSH2 0xE85 JUMPI DUP4 DUP7 DUP7 DUP10 DUP5 PUSH1 0x3 DUP2 LT PUSH2 0xE5B JUMPI PUSH2 0xE5B PUSH2 0x1521 JUMP JUMPDEST PUSH1 0x20 MUL ADD MLOAD PUSH2 0xE6A SWAP2 SWAP1 PUSH2 0x156F JUMP JUMPDEST PUSH2 0xE74 SWAP2 SWAP1 PUSH2 0x15BD JUMP JUMPDEST PUSH2 0xE7E SWAP2 SWAP1 PUSH2 0x15A6 JUMP JUMPDEST SWAP2 POP PUSH2 0xED6 JUMP JUMPDEST DUP6 DUP6 DUP9 DUP4 PUSH1 0x3 DUP2 LT PUSH2 0xE99 JUMPI PUSH2 0xE99 PUSH2 0x1521 JUMP JUMPDEST PUSH1 0x20 MUL ADD MLOAD PUSH2 0xEA8 SWAP2 SWAP1 PUSH2 0x156F JUMP JUMPDEST PUSH2 0xEB2 SWAP2 SWAP1 PUSH2 0x15BD JUMP JUMPDEST DUP8 DUP3 PUSH1 0x3 DUP2 LT PUSH2 0xEC4 JUMPI PUSH2 0xEC4 PUSH2 0x1521 JUMP JUMPDEST PUSH1 0x20 MUL ADD MLOAD PUSH2 0xED3 SWAP2 SWAP1 PUSH2 0x15A6 JUMP JUMPDEST SWAP2 POP JUMPDEST PUSH3 0xF4240 DUP3 PUSH2 0xEE7 PUSH1 0x1 PUSH1 0x3 PUSH2 0x15A6 JUMP JUMPDEST PUSH2 0xEF2 SWAP1 PUSH1 0x4 PUSH2 0x156F JUMP JUMPDEST PUSH2 0xEFF PUSH1 0x3 PUSH2 0x12C PUSH2 0x156F JUMP JUMPDEST PUSH2 0xF09 SWAP2 SWAP1 PUSH2 0x15BD JUMP JUMPDEST PUSH2 0xF13 SWAP2 SWAP1 PUSH2 0x156F JUMP JUMPDEST PUSH2 0xF1D SWAP2 SWAP1 PUSH2 0x15BD JUMP JUMPDEST DUP8 DUP3 PUSH1 0x3 DUP2 LT PUSH2 0xF2F JUMPI PUSH2 0xF2F PUSH2 0x1521 JUMP JUMPDEST PUSH1 0x20 MUL ADD DUP2 DUP2 MLOAD PUSH2 0xF40 SWAP2 SWAP1 PUSH2 0x15A6 JUMP JUMPDEST SWAP1 MSTORE POP PUSH2 0xF4C DUP2 PUSH2 0x15DF JUMP JUMPDEST SWAP1 POP PUSH2 0xE36 JUMP JUMPDEST POP PUSH1 0x0 PUSH2 0xF61 DUP12 DUP9 DUP8 PUSH2 0x1237 JUMP JUMPDEST SWAP1 POP PUSH1 0x3 DUP12 PUSH1 0x3 DUP2 LT PUSH2 0xF76 JUMPI PUSH2 0xF76 PUSH2 0x1521 JUMP JUMPDEST ADD SLOAD PUSH1 0x1 DUP3 DUP10 DUP15 PUSH1 0x3 DUP2 LT PUSH2 0xF8D JUMPI PUSH2 0xF8D PUSH2 0x1521 JUMP JUMPDEST PUSH1 0x20 MUL ADD MLOAD PUSH2 0xF9C SWAP2 SWAP1 PUSH2 0x15A6 JUMP JUMPDEST PUSH2 0xFA6 SWAP2 SWAP1 PUSH2 0x15A6 JUMP JUMPDEST PUSH2 0xFB0 SWAP2 SWAP1 PUSH2 0x15BD JUMP JUMPDEST SWAP10 POP PUSH2 0xFBC DUP11 DUP5 PUSH2 0x15A6 JUMP JUMPDEST SWAP9 POP POP POP POP POP POP POP POP POP SWAP3 POP SWAP3 SWAP1 POP JUMP JUMPDEST PUSH1 0x1 PUSH1 0x1 PUSH1 0xA0 SHL SUB DUP3 AND PUSH1 0x0 SWAP1 DUP2 MSTORE PUSH1 0xA PUSH1 0x20 MSTORE PUSH1 0x40 DUP2 KECCAK256 DUP1 SLOAD DUP4 SWAP3 SWAP1 PUSH2 0xFF5 SWAP1 DUP5 SWAP1 PUSH2 0x15A6 JUMP JUMPDEST SWAP3 POP POP DUP2 SWAP1 SSTORE POP DUP1 PUSH1 0x9 PUSH1 0x0 DUP3 DUP3 SLOAD PUSH2 0x100E SWAP2 SWAP1 PUSH2 0x15A6 JUMP JUMPDEST SWAP1 SWAP2 SSTORE POP POP POP POP JUMP JUMPDEST PUSH1 0x0 DUP1 PUSH1 0x3 PUSH2 0x1027 PUSH1 0x1 DUP3 PUSH2 0x15A6 JUMP JUMPDEST PUSH2 0x1032 SWAP1 PUSH1 0x3 PUSH2 0x16DC JUMP JUMPDEST PUSH2 0x103E SWAP1 PUSH2 0x3E8 PUSH2 0x156F JUMP JUMPDEST PUSH2 0x1048 SWAP2 SWAP1 PUSH2 0x156F JUMP JUMPDEST SWAP1 POP PUSH1 0x0 DUP1 JUMPDEST PUSH1 0x3 DUP2 LT ISZERO PUSH2 0x108A JUMPI DUP5 DUP2 PUSH1 0x3 DUP2 LT PUSH2 0x1069 JUMPI PUSH2 0x1069 PUSH2 0x1521 JUMP JUMPDEST PUSH1 0x20 MUL ADD MLOAD PUSH2 0x1078 SWAP1 DUP4 PUSH2 0x158E JUMP JUMPDEST SWAP2 POP PUSH2 0x1083 DUP2 PUSH2 0x15DF JUMP JUMPDEST SWAP1 POP PUSH2 0x104E JUMP JUMPDEST POP DUP1 PUSH1 0x0 DUP1 JUMPDEST PUSH1 0xFF DUP2 LT ISZERO PUSH2 0x118D JUMPI DUP3 PUSH1 0x0 JUMPDEST PUSH1 0x3 DUP2 LT ISZERO PUSH2 0x10EE JUMPI DUP9 DUP2 PUSH1 0x3 DUP2 LT PUSH2 0x10B8 JUMPI PUSH2 0x10B8 PUSH2 0x1521 JUMP JUMPDEST PUSH1 0x20 MUL ADD MLOAD PUSH2 0x10C8 SWAP1 PUSH1 0x3 PUSH2 0x156F JUMP JUMPDEST PUSH2 0x10D2 DUP7 DUP5 PUSH2 0x156F JUMP JUMPDEST PUSH2 0x10DC SWAP2 SWAP1 PUSH2 0x15BD JUMP JUMPDEST SWAP2 POP PUSH2 0x10E7 DUP2 PUSH2 0x15DF JUMP JUMPDEST SWAP1 POP PUSH2 0x109D JUMP JUMPDEST POP DUP4 SWAP3 POP DUP1 PUSH2 0x10FF PUSH1 0x3 PUSH1 0x1 PUSH2 0x158E JUMP JUMPDEST PUSH2 0x1109 SWAP2 SWAP1 PUSH2 0x156F JUMP JUMPDEST DUP5 PUSH2 0x1115 PUSH1 0x1 DUP10 PUSH2 0x15A6 JUMP JUMPDEST PUSH2 0x111F SWAP2 SWAP1 PUSH2 0x156F JUMP JUMPDEST PUSH2 0x1129 SWAP2 SWAP1 PUSH2 0x158E JUMP JUMPDEST DUP5 PUSH2 0x1135 DUP4 PUSH1 0x3 PUSH2 0x156F JUMP JUMPDEST PUSH2 0x113F DUP9 DUP11 PUSH2 0x156F JUMP JUMPDEST PUSH2 0x1149 SWAP2 SWAP1 PUSH2 0x158E JUMP JUMPDEST PUSH2 0x1153 SWAP2 SWAP1 PUSH2 0x156F JUMP JUMPDEST PUSH2 0x115D SWAP2 SWAP1 PUSH2 0x15BD JUMP JUMPDEST SWAP4 POP PUSH1 0x1 PUSH2 0x116B DUP6 DUP6 PUSH2 0x11CA JUMP JUMPDEST GT PUSH2 0x117C JUMPI POP SWAP2 SWAP7 SWAP6 POP POP POP POP POP POP JUMP JUMPDEST POP PUSH2 0x1186 DUP2 PUSH2 0x15DF JUMP JUMPDEST SWAP1 POP PUSH2 0x1090 JUMP JUMPDEST POP PUSH1 0x40 MLOAD PUSH3 0x461BCD PUSH1 0xE5 SHL DUP2 MSTORE PUSH1 0x20 PUSH1 0x4 DUP3 ADD MSTORE PUSH1 0x11 PUSH1 0x24 DUP3 ADD MSTORE PUSH17 0x44206469646E277420636F6E7665726765 PUSH1 0x78 SHL PUSH1 0x44 DUP3 ADD MSTORE PUSH1 0x64 ADD PUSH2 0x212 JUMP JUMPDEST PUSH1 0x0 DUP2 DUP4 LT ISZERO PUSH2 0x11E3 JUMPI PUSH2 0x11DE DUP4 DUP4 PUSH2 0x15A6 JUMP JUMPDEST PUSH2 0x11ED JUMP JUMPDEST PUSH2 0x11ED DUP3 DUP5 PUSH2 0x15A6 JUMP JUMPDEST SWAP1 POP JUMPDEST SWAP3 SWAP2 POP POP JUMP JUMPDEST PUSH1 0x1 PUSH1 0x1 PUSH1 0xA0 SHL SUB DUP3 AND PUSH1 0x0 SWAP1 DUP2 MSTORE PUSH1 0xA PUSH1 0x20 MSTORE PUSH1 0x40 DUP2 KECCAK256 DUP1 SLOAD DUP4 SWAP3 SWAP1 PUSH2 0x121E SWAP1 DUP5 SWAP1 PUSH2 0x158E JUMP JUMPDEST SWAP3 POP POP DUP2 SWAP1 SSTORE POP DUP1 PUSH1 0x9 PUSH1 0x0 DUP3 DUP3 SLOAD PUSH2 0x100E SWAP2 SWAP1 PUSH2 0x158E JUMP JUMPDEST PUSH1 0x0 DUP1 PUSH1 0x3 PUSH2 0x1247 PUSH1 0x1 DUP3 PUSH2 0x15A6 JUMP JUMPDEST PUSH2 0x1252 SWAP1 PUSH1 0x3 PUSH2 0x16DC JUMP JUMPDEST PUSH2 0x125E SWAP1 PUSH2 0x3E8 PUSH2 0x156F JUMP JUMPDEST PUSH2 0x1268 SWAP2 SWAP1 PUSH2 0x156F JUMP JUMPDEST SWAP1 POP PUSH1 0x0 DUP4 DUP2 DUP1 JUMPDEST PUSH1 0x3 DUP2 LT ISZERO PUSH2 0x12E1 JUMPI DUP9 DUP2 EQ PUSH2 0x129E JUMPI DUP8 DUP2 PUSH1 0x3 DUP2 LT PUSH2 0x1292 JUMPI PUSH2 0x1292 PUSH2 0x1521 JUMP JUMPDEST PUSH1 0x20 MUL ADD MLOAD SWAP2 POP PUSH2 0x12A3 JUMP JUMPDEST PUSH2 0x12D1 JUMP JUMPDEST PUSH2 0x12AD DUP3 DUP6 PUSH2 0x158E JUMP JUMPDEST SWAP4 POP PUSH2 0x12BA DUP3 PUSH1 0x3 PUSH2 0x156F JUMP JUMPDEST PUSH2 0x12C4 DUP9 DUP6 PUSH2 0x156F JUMP JUMPDEST PUSH2 0x12CE SWAP2 SWAP1 PUSH2 0x15BD JUMP JUMPDEST SWAP3 POP JUMPDEST PUSH2 0x12DA DUP2 PUSH2 0x15DF JUMP JUMPDEST SWAP1 POP PUSH2 0x1270 JUMP JUMPDEST POP PUSH2 0x12ED DUP5 PUSH1 0x3 PUSH2 0x156F JUMP JUMPDEST PUSH2 0x12F7 DUP8 DUP5 PUSH2 0x156F JUMP JUMPDEST PUSH2 0x1301 SWAP2 SWAP1 PUSH2 0x15BD JUMP JUMPDEST SWAP2 POP PUSH1 0x0 PUSH2 0x130F DUP6 DUP9 PUSH2 0x15BD JUMP JUMPDEST PUSH2 0x1319 SWAP1 DUP6 PUSH2 0x158E JUMP JUMPDEST SWAP1 POP PUSH1 0x0 DUP8 DUP2 JUMPDEST PUSH1 0xFF DUP2 LT ISZERO PUSH2 0xD56 JUMPI DUP2 SWAP3 POP DUP10 DUP5 DUP4 PUSH1 0x2 PUSH2 0x133B SWAP2 SWAP1 PUSH2 0x156F JUMP JUMPDEST PUSH2 0x1345 SWAP2 SWAP1 PUSH2 0x158E JUMP JUMPDEST PUSH2 0x134F SWAP2 SWAP1 PUSH2 0x15A6 JUMP JUMPDEST DUP7 PUSH2 0x135A DUP5 DUP1 PUSH2 0x156F JUMP JUMPDEST PUSH2 0x1364 SWAP2 SWAP1 PUSH2 0x158E JUMP JUMPDEST PUSH2 0x136E SWAP2 SWAP1 PUSH2 0x15BD JUMP JUMPDEST SWAP2 POP PUSH1 0x1 PUSH2 0x137C DUP4 DUP6 PUSH2 0x11CA JUMP JUMPDEST GT PUSH2 0x1390 JUMPI POP SWAP7 POP PUSH2 0x13A0 SWAP6 POP POP POP POP POP POP JUMP JUMPDEST PUSH2 0x1399 DUP2 PUSH2 0x15DF JUMP JUMPDEST SWAP1 POP PUSH2 0x1320 JUMP JUMPDEST SWAP4 SWAP3 POP POP POP JUMP JUMPDEST PUSH1 0x40 MLOAD DUP1 PUSH1 0x60 ADD PUSH1 0x40 MSTORE DUP1 PUSH1 0x3 SWAP1 PUSH1 0x20 DUP3 MUL DUP1 CALLDATASIZE DUP4 CALLDATACOPY POP SWAP2 SWAP3 SWAP2 POP POP JUMP JUMPDEST PUSH1 0x0 PUSH1 0x20 DUP3 DUP5 SUB SLT ISZERO PUSH2 0x13D7 JUMPI PUSH1 0x0 DUP1 REVERT JUMPDEST POP CALLDATALOAD SWAP2 SWAP1 POP JUMP JUMPDEST PUSH1 0x0 DUP1 PUSH1 0x0 DUP1 PUSH1 0x80 DUP6 DUP8 SUB SLT ISZERO PUSH2 0x13F4 JUMPI PUSH1 0x0 DUP1 REVERT JUMPDEST POP POP DUP3 CALLDATALOAD SWAP5 PUSH1 0x20 DUP5 ADD CALLDATALOAD SWAP5 POP PUSH1 0x40 DUP5 ADD CALLDATALOAD SWAP4 PUSH1 0x60 ADD CALLDATALOAD SWAP3 POP SWAP1 POP JUMP JUMPDEST PUSH1 0x0 DUP1 PUSH1 0x0 PUSH1 0x60 DUP5 DUP7 SUB SLT ISZERO PUSH2 0x1425 JUMPI PUSH1 0x0 DUP1 REVERT JUMPDEST POP POP DUP2 CALLDATALOAD SWAP4 PUSH1 0x20 DUP4 ADD CALLDATALOAD SWAP4 POP PUSH1 0x40 SWAP1 SWAP3 ADD CALLDATALOAD SWAP2 SWAP1 POP JUMP JUMPDEST PUSH1 0x0 PUSH1 0x20 DUP3 DUP5 SUB SLT ISZERO PUSH2 0x144E JUMPI PUSH1 0x0 DUP1 REVERT JUMPDEST DUP2 CALLDATALOAD PUSH1 0x1 PUSH1 0x1 PUSH1 0xA0 SHL SUB DUP2 AND DUP2 EQ PUSH2 0x13A0 JUMPI PUSH1 0x0 DUP1 REVERT JUMPDEST DUP1 PUSH1 0x60 DUP2 ADD DUP4 LT ISZERO PUSH2 0x11F0 JUMPI PUSH1 0x0 DUP1 REVERT JUMPDEST PUSH1 0x0 DUP1 PUSH1 0x80 DUP4 DUP6 SUB SLT ISZERO PUSH2 0x1489 JUMPI PUSH1 0x0 DUP1 REVERT JUMPDEST PUSH2 0x1493 DUP5 DUP5 PUSH2 0x1465 JUMP JUMPDEST SWAP5 PUSH1 0x60 SWAP4 SWAP1 SWAP4 ADD CALLDATALOAD SWAP4 POP POP POP JUMP JUMPDEST PUSH1 0x0 DUP1 PUSH1 0x40 DUP4 DUP6 SUB SLT ISZERO PUSH2 0x14B4 JUMPI PUSH1 0x0 DUP1 REVERT JUMPDEST POP POP DUP1 CALLDATALOAD SWAP3 PUSH1 0x20 SWAP1 SWAP2 ADD CALLDATALOAD SWAP2 POP JUMP JUMPDEST PUSH1 0x0 DUP1 PUSH1 0x80 DUP4 DUP6 SUB SLT ISZERO PUSH2 0x14D6 JUMPI PUSH1 0x0 DUP1 REVERT JUMPDEST DUP3 CALLDATALOAD SWAP2 POP PUSH2 0x14E7 DUP5 PUSH1 0x20 DUP6 ADD PUSH2 0x1465 JUMP JUMPDEST SWAP1 POP SWAP3 POP SWAP3 SWAP1 POP JUMP JUMPDEST PUSH1 0x60 DUP2 ADD DUP2 DUP4 PUSH1 0x0 JUMPDEST PUSH1 0x3 DUP2 LT ISZERO PUSH2 0x1518 JUMPI DUP2 MLOAD DUP4 MSTORE PUSH1 0x20 SWAP3 DUP4 ADD SWAP3 SWAP1 SWAP2 ADD SWAP1 PUSH1 0x1 ADD PUSH2 0x14F9 JUMP JUMPDEST POP POP POP SWAP3 SWAP2 POP POP JUMP JUMPDEST PUSH4 0x4E487B71 PUSH1 0xE0 SHL PUSH1 0x0 MSTORE PUSH1 0x32 PUSH1 0x4 MSTORE PUSH1 0x24 PUSH1 0x0 REVERT JUMPDEST PUSH1 0x0 PUSH1 0x20 DUP3 DUP5 SUB SLT ISZERO PUSH2 0x1549 JUMPI PUSH1 0x0 DUP1 REVERT JUMPDEST DUP2 MLOAD DUP1 ISZERO ISZERO DUP2 EQ PUSH2 0x13A0 JUMPI PUSH1 0x0 DUP1 REVERT JUMPDEST PUSH4 0x4E487B71 PUSH1 0xE0 SHL PUSH1 0x0 MSTORE PUSH1 0x11 PUSH1 0x4 MSTORE PUSH1 0x24 PUSH1 0x0 REVERT JUMPDEST PUSH1 0x0 DUP2 PUSH1 0x0 NOT DIV DUP4 GT DUP3 ISZERO ISZERO AND ISZERO PUSH2 0x1589 JUMPI PUSH2 0x1589 PUSH2 0x1559 JUMP JUMPDEST POP MUL SWAP1 JUMP JUMPDEST PUSH1 0x0 DUP3 NOT DUP3 GT ISZERO PUSH2 0x15A1 JUMPI PUSH2 0x15A1 PUSH2 0x1559 JUMP JUMPDEST POP ADD SWAP1 JUMP JUMPDEST PUSH1 0x0 DUP3 DUP3 LT ISZERO PUSH2 0x15B8 JUMPI PUSH2 0x15B8 PUSH2 0x1559 JUMP JUMPDEST POP SUB SWAP1 JUMP JUMPDEST PUSH1 0x0 DUP3 PUSH2 0x15DA JUMPI PUSH4 0x4E487B71 PUSH1 0xE0 SHL PUSH1 0x0 MSTORE PUSH1 0x12 PUSH1 0x4 MSTORE PUSH1 0x24 PUSH1 0x0 REVERT JUMPDEST POP DIV SWAP1 JUMP JUMPDEST PUSH1 0x0 PUSH1 0x1 DUP3 ADD PUSH2 0x15F1 JUMPI PUSH2 0x15F1 PUSH2 0x1559 JUMP JUMPDEST POP PUSH1 0x1 ADD SWAP1 JUMP JUMPDEST PUSH1 0x1 DUP2 DUP2 JUMPDEST DUP1 DUP6 GT ISZERO PUSH2 0x1633 JUMPI DUP2 PUSH1 0x0 NOT DIV DUP3 GT ISZERO PUSH2 0x1619 JUMPI PUSH2 0x1619 PUSH2 0x1559 JUMP JUMPDEST DUP1 DUP6 AND ISZERO PUSH2 0x1626 JUMPI SWAP2 DUP2 MUL SWAP2 JUMPDEST SWAP4 DUP5 SHR SWAP4 SWAP1 DUP1 MUL SWAP1 PUSH2 0x15FD JUMP JUMPDEST POP SWAP3 POP SWAP3 SWAP1 POP JUMP JUMPDEST PUSH1 0x0 DUP3 PUSH2 0x164A JUMPI POP PUSH1 0x1 PUSH2 0x11F0 JUMP JUMPDEST DUP2 PUSH2 0x1657 JUMPI POP PUSH1 0x0 PUSH2 0x11F0 JUMP JUMPDEST DUP2 PUSH1 0x1 DUP2 EQ PUSH2 0x166D JUMPI PUSH1 0x2 DUP2 EQ PUSH2 0x1677 JUMPI PUSH2 0x1693 JUMP JUMPDEST PUSH1 0x1 SWAP2 POP POP PUSH2 0x11F0 JUMP JUMPDEST PUSH1 0xFF DUP5 GT ISZERO PUSH2 0x1688 JUMPI PUSH2 0x1688 PUSH2 0x1559 JUMP JUMPDEST POP POP PUSH1 0x1 DUP3 SHL PUSH2 0x11F0 JUMP JUMPDEST POP PUSH1 0x20 DUP4 LT PUSH2 0x133 DUP4 LT AND PUSH1 0x4E DUP5 LT PUSH1 0xB DUP5 LT AND OR ISZERO PUSH2 0x16B6 JUMPI POP DUP2 DUP2 EXP PUSH2 0x11F0 JUMP JUMPDEST PUSH2 0x16C0 DUP4 DUP4 PUSH2 0x15F8 JUMP JUMPDEST DUP1 PUSH1 0x0 NOT DIV DUP3 GT ISZERO PUSH2 0x16D4 JUMPI PUSH2 0x16D4 PUSH2 0x1559 JUMP JUMPDEST MUL SWAP4 SWAP3 POP POP POP JUMP JUMPDEST PUSH1 0x0 PUSH2 0x11ED DUP4 DUP4 PUSH2 0x163B JUMP INVALID LOG2 PUSH5 0x6970667358 0x22 SLT KECCAK256 EXTCODESIZE 0xA8 PUSH14 0x542CCE8DF44F5D2A2729E9E0C13C SSTORE DUP4 0xD4 PUSH10 0x792AA39C9048F93CB5BF SWAP4 PUSH5 0x736F6C6343 STOP ADDMOD 0xD STOP CALLER "},"methodIdentifiers":{"addLiquidity(uint256[3],uint256)":"a4bf0446","balanceOf(address)":"70a08231","balances(uint256)":"4903b0d1","calcWithdrawOneToken(uint256,uint256)":"a60dc3b1","getVirtualPrice()":"e25aa5fa","removeLiquidity(uint256,uint256[3])":"d035862c","removeLiquidityOneToken(uint256,uint256,uint256)":"7066b5b2","swap(uint256,uint256,uint256,uint256)":"5673b02d","tokens(uint256)":"4f64b2be","totalSupply()":"18160ddd"}}}}}