{
  "_format": "hh-sol-artifact-1",
  "contractName": "GitshockFinance",
  "sourceName": "contracts/Gitshock.sol",
  "abi": [
    {
      "inputs": [],
      "stateMutability": "nonpayable",
      "type": "constructor"
    },
    {
      "anonymous": false,
      "inputs": [
        {
          "indexed": true,
          "internalType": "address",
          "name": "owner",
          "type": "address"
        },
        {
          "indexed": true,
          "internalType": "address",
          "name": "spender",
          "type": "address"
        },
        {
          "indexed": false,
          "internalType": "uint256",
          "name": "value",
          "type": "uint256"
        }
      ],
      "name": "Approval",
      "type": "event"
    },
    {
      "anonymous": false,
      "inputs": [
        {
          "indexed": true,
          "internalType": "address",
          "name": "delegator",
          "type": "address"
        },
        {
          "indexed": true,
          "internalType": "address",
          "name": "fromDelegate",
          "type": "address"
        },
        {
          "indexed": true,
          "internalType": "address",
          "name": "toDelegate",
          "type": "address"
        }
      ],
      "name": "DelegateChanged",
      "type": "event"
    },
    {
      "anonymous": false,
      "inputs": [
        {
          "indexed": true,
          "internalType": "address",
          "name": "delegate",
          "type": "address"
        },
        {
          "indexed": false,
          "internalType": "uint256",
          "name": "previousBalance",
          "type": "uint256"
        },
        {
          "indexed": false,
          "internalType": "uint256",
          "name": "newBalance",
          "type": "uint256"
        }
      ],
      "name": "DelegateVotesChanged",
      "type": "event"
    },
    {
      "anonymous": false,
      "inputs": [
        {
          "indexed": true,
          "internalType": "address",
          "name": "previousOwner",
          "type": "address"
        },
        {
          "indexed": true,
          "internalType": "address",
          "name": "newOwner",
          "type": "address"
        }
      ],
      "name": "OwnershipTransferred",
      "type": "event"
    },
    {
      "anonymous": false,
      "inputs": [
        {
          "indexed": true,
          "internalType": "address",
          "name": "from",
          "type": "address"
        },
        {
          "indexed": true,
          "internalType": "address",
          "name": "to",
          "type": "address"
        },
        {
          "indexed": false,
          "internalType": "uint256",
          "name": "value",
          "type": "uint256"
        }
      ],
      "name": "Transfer",
      "type": "event"
    },
    {
      "inputs": [],
      "name": "DOMAIN_SEPARATOR",
      "outputs": [
        {
          "internalType": "bytes32",
          "name": "",
          "type": "bytes32"
        }
      ],
      "stateMutability": "view",
      "type": "function"
    },
    {
      "inputs": [
        {
          "internalType": "address",
          "name": "owner",
          "type": "address"
        },
        {
          "internalType": "address",
          "name": "spender",
          "type": "address"
        }
      ],
      "name": "allowance",
      "outputs": [
        {
          "internalType": "uint256",
          "name": "",
          "type": "uint256"
        }
      ],
      "stateMutability": "view",
      "type": "function"
    },
    {
      "inputs": [
        {
          "internalType": "address",
          "name": "spender",
          "type": "address"
        },
        {
          "internalType": "uint256",
          "name": "amount",
          "type": "uint256"
        }
      ],
      "name": "approve",
      "outputs": [
        {
          "internalType": "bool",
          "name": "",
          "type": "bool"
        }
      ],
      "stateMutability": "nonpayable",
      "type": "function"
    },
    {
      "inputs": [
        {
          "internalType": "address",
          "name": "account",
          "type": "address"
        }
      ],
      "name": "balanceOf",
      "outputs": [
        {
          "internalType": "uint256",
          "name": "",
          "type": "uint256"
        }
      ],
      "stateMutability": "view",
      "type": "function"
    },
    {
      "inputs": [
        {
          "internalType": "uint256",
          "name": "amount",
          "type": "uint256"
        }
      ],
      "name": "burn",
      "outputs": [],
      "stateMutability": "nonpayable",
      "type": "function"
    },
    {
      "inputs": [
        {
          "internalType": "address",
          "name": "account",
          "type": "address"
        },
        {
          "internalType": "uint256",
          "name": "amount",
          "type": "uint256"
        }
      ],
      "name": "burnFrom",
      "outputs": [],
      "stateMutability": "nonpayable",
      "type": "function"
    },
    {
      "inputs": [
        {
          "internalType": "address",
          "name": "account",
          "type": "address"
        },
        {
          "internalType": "uint32",
          "name": "pos",
          "type": "uint32"
        }
      ],
      "name": "checkpoints",
      "outputs": [
        {
          "components": [
            {
              "internalType": "uint32",
              "name": "fromBlock",
              "type": "uint32"
            },
            {
              "internalType": "uint224",
              "name": "votes",
              "type": "uint224"
            }
          ],
          "internalType": "struct ERC20Votes.Checkpoint",
          "name": "",
          "type": "tuple"
        }
      ],
      "stateMutability": "view",
      "type": "function"
    },
    {
      "inputs": [],
      "name": "decimals",
      "outputs": [
        {
          "internalType": "uint8",
          "name": "",
          "type": "uint8"
        }
      ],
      "stateMutability": "view",
      "type": "function"
    },
    {
      "inputs": [
        {
          "internalType": "address",
          "name": "spender",
          "type": "address"
        },
        {
          "internalType": "uint256",
          "name": "subtractedValue",
          "type": "uint256"
        }
      ],
      "name": "decreaseAllowance",
      "outputs": [
        {
          "internalType": "bool",
          "name": "",
          "type": "bool"
        }
      ],
      "stateMutability": "nonpayable",
      "type": "function"
    },
    {
      "inputs": [
        {
          "internalType": "address",
          "name": "delegatee",
          "type": "address"
        }
      ],
      "name": "delegate",
      "outputs": [],
      "stateMutability": "nonpayable",
      "type": "function"
    },
    {
      "inputs": [
        {
          "internalType": "address",
          "name": "delegatee",
          "type": "address"
        },
        {
          "internalType": "uint256",
          "name": "nonce",
          "type": "uint256"
        },
        {
          "internalType": "uint256",
          "name": "expiry",
          "type": "uint256"
        },
        {
          "internalType": "uint8",
          "name": "v",
          "type": "uint8"
        },
        {
          "internalType": "bytes32",
          "name": "r",
          "type": "bytes32"
        },
        {
          "internalType": "bytes32",
          "name": "s",
          "type": "bytes32"
        }
      ],
      "name": "delegateBySig",
      "outputs": [],
      "stateMutability": "nonpayable",
      "type": "function"
    },
    {
      "inputs": [
        {
          "internalType": "address",
          "name": "account",
          "type": "address"
        }
      ],
      "name": "delegates",
      "outputs": [
        {
          "internalType": "address",
          "name": "",
          "type": "address"
        }
      ],
      "stateMutability": "view",
      "type": "function"
    },
    {
      "inputs": [
        {
          "internalType": "uint256",
          "name": "blockNumber",
          "type": "uint256"
        }
      ],
      "name": "getPastTotalSupply",
      "outputs": [
        {
          "internalType": "uint256",
          "name": "",
          "type": "uint256"
        }
      ],
      "stateMutability": "view",
      "type": "function"
    },
    {
      "inputs": [
        {
          "internalType": "address",
          "name": "account",
          "type": "address"
        },
        {
          "internalType": "uint256",
          "name": "blockNumber",
          "type": "uint256"
        }
      ],
      "name": "getPastVotes",
      "outputs": [
        {
          "internalType": "uint256",
          "name": "",
          "type": "uint256"
        }
      ],
      "stateMutability": "view",
      "type": "function"
    },
    {
      "inputs": [
        {
          "internalType": "address",
          "name": "account",
          "type": "address"
        }
      ],
      "name": "getVotes",
      "outputs": [
        {
          "internalType": "uint256",
          "name": "",
          "type": "uint256"
        }
      ],
      "stateMutability": "view",
      "type": "function"
    },
    {
      "inputs": [
        {
          "internalType": "address",
          "name": "spender",
          "type": "address"
        },
        {
          "internalType": "uint256",
          "name": "addedValue",
          "type": "uint256"
        }
      ],
      "name": "increaseAllowance",
      "outputs": [
        {
          "internalType": "bool",
          "name": "",
          "type": "bool"
        }
      ],
      "stateMutability": "nonpayable",
      "type": "function"
    },
    {
      "inputs": [
        {
          "internalType": "address",
          "name": "to",
          "type": "address"
        },
        {
          "internalType": "uint256",
          "name": "amount",
          "type": "uint256"
        }
      ],
      "name": "mint",
      "outputs": [],
      "stateMutability": "nonpayable",
      "type": "function"
    },
    {
      "inputs": [],
      "name": "name",
      "outputs": [
        {
          "internalType": "string",
          "name": "",
          "type": "string"
        }
      ],
      "stateMutability": "view",
      "type": "function"
    },
    {
      "inputs": [
        {
          "internalType": "address",
          "name": "owner",
          "type": "address"
        }
      ],
      "name": "nonces",
      "outputs": [
        {
          "internalType": "uint256",
          "name": "",
          "type": "uint256"
        }
      ],
      "stateMutability": "view",
      "type": "function"
    },
    {
      "inputs": [
        {
          "internalType": "address",
          "name": "account",
          "type": "address"
        }
      ],
      "name": "numCheckpoints",
      "outputs": [
        {
          "internalType": "uint32",
          "name": "",
          "type": "uint32"
        }
      ],
      "stateMutability": "view",
      "type": "function"
    },
    {
      "inputs": [],
      "name": "owner",
      "outputs": [
        {
          "internalType": "address",
          "name": "",
          "type": "address"
        }
      ],
      "stateMutability": "view",
      "type": "function"
    },
    {
      "inputs": [
        {
          "internalType": "address",
          "name": "owner",
          "type": "address"
        },
        {
          "internalType": "address",
          "name": "spender",
          "type": "address"
        },
        {
          "internalType": "uint256",
          "name": "value",
          "type": "uint256"
        },
        {
          "internalType": "uint256",
          "name": "deadline",
          "type": "uint256"
        },
        {
          "internalType": "uint8",
          "name": "v",
          "type": "uint8"
        },
        {
          "internalType": "bytes32",
          "name": "r",
          "type": "bytes32"
        },
        {
          "internalType": "bytes32",
          "name": "s",
          "type": "bytes32"
        }
      ],
      "name": "permit",
      "outputs": [],
      "stateMutability": "nonpayable",
      "type": "function"
    },
    {
      "inputs": [],
      "name": "renounceOwnership",
      "outputs": [],
      "stateMutability": "nonpayable",
      "type": "function"
    },
    {
      "inputs": [],
      "name": "symbol",
      "outputs": [
        {
          "internalType": "string",
          "name": "",
          "type": "string"
        }
      ],
      "stateMutability": "view",
      "type": "function"
    },
    {
      "inputs": [],
      "name": "totalSupply",
      "outputs": [
        {
          "internalType": "uint256",
          "name": "",
          "type": "uint256"
        }
      ],
      "stateMutability": "view",
      "type": "function"
    },
    {
      "inputs": [
        {
          "internalType": "address",
          "name": "to",
          "type": "address"
        },
        {
          "internalType": "uint256",
          "name": "amount",
          "type": "uint256"
        }
      ],
      "name": "transfer",
      "outputs": [
        {
          "internalType": "bool",
          "name": "",
          "type": "bool"
        }
      ],
      "stateMutability": "nonpayable",
      "type": "function"
    },
    {
      "inputs": [
        {
          "internalType": "address",
          "name": "from",
          "type": "address"
        },
        {
          "internalType": "address",
          "name": "to",
          "type": "address"
        },
        {
          "internalType": "uint256",
          "name": "amount",
          "type": "uint256"
        }
      ],
      "name": "transferFrom",
      "outputs": [
        {
          "internalType": "bool",
          "name": "",
          "type": "bool"
        }
      ],
      "stateMutability": "nonpayable",
      "type": "function"
    },
    {
      "inputs": [
        {
          "internalType": "address",
          "name": "newOwner",
          "type": "address"
        }
      ],
      "name": "transferOwnership",
      "outputs": [],
      "stateMutability": "nonpayable",
      "type": "function"
    }
  ],
  "bytecode": "0x6101406040523480156200001257600080fd5b506040518060400160405280601081526020016f47697473686f636b2046696e616e636560801b81525080604051806040016040528060018152602001603160f81b8152506040518060400160405280601081526020016f47697473686f636b2046696e616e636560801b8152506040518060400160405280600481526020016308ea88cb60e31b8152508160039080519060200190620000b5929190620007fd565b508051620000cb906004906020840190620007fd565b505050620000e8620000e2620001a760201b60201c565b620001ab565b815160209283012081519183019190912060e08290526101008190524660a0818152604080517f8b73c3c69bb8fe3d512ecc4cf759cc79239f7b179b0ffacaa9a75d522b39400f818801819052818301969096526060810194909452608080850193909352308483018190528151808603909301835260c0948501909152815191909501209052919091526101205250620001a1336200018b6012600a620009ac565b6200019b90631dcd6500620009bd565b620001fd565b62000a66565b3390565b600580546001600160a01b038381166001600160a01b0319831681179093556040519116919082907f8be0079c531659141344cd1fd0a4f28419497f9722a3daafe3b4186f6b6457e090600090a35050565b6200021482826200021860201b62000bac1760201c565b5050565b6200022f8282620002cf60201b62000c3c1760201c565b6001600160e01b0362000243620003be8216565b1115620002b05760405162461bcd60e51b815260206004820152603060248201527f4552433230566f7465733a20746f74616c20737570706c79207269736b73206f60448201526f766572666c6f77696e6720766f74657360801b60648201526084015b60405180910390fd5b620002c9600a62000d23620003c460201b1783620003db565b50505050565b6001600160a01b038216620003275760405162461bcd60e51b815260206004820152601f60248201527f45524332303a206d696e7420746f20746865207a65726f2061646472657373006044820152606401620002a7565b80600260008282546200033b9190620009df565b90915550506001600160a01b038216600090815260208190526040812080548392906200036a908490620009df565b90915550506040518181526001600160a01b038316906000907fddf252ad1be2c89b69c2b068fc378daa952ba7f163c4a11628f55a4df523b3ef9060200160405180910390a3620002146000838362000592565b60025490565b6000620003d28284620009df565b90505b92915050565b8254600090819080156200042d5785620003f7600183620009fa565b815481106200040a576200040a62000a14565b60009182526020909120015464010000000090046001600160e01b031662000430565b60005b6001600160e01b031692506200044783858760201c565b91506000811180156200048b5750438662000464600184620009fa565b8154811062000477576200047762000a14565b60009182526020909120015463ffffffff16145b15620004ff57620004a782620005aa60201b62000d2f1760201c565b86620004b5600184620009fa565b81548110620004c857620004c862000a14565b9060005260206000200160000160046101000a8154816001600160e01b0302191690836001600160e01b0316021790555062000584565b85604051806040016040528062000521436200061960201b62000d9c1760201c565b63ffffffff1681526020016200054285620005aa60201b62000d2f1760201c565b6001600160e01b0390811690915282546001810184556000938452602093849020835194909301519091166401000000000263ffffffff909316929092179101555b50935093915050565b505050565b6200058d8383836200068060201b62000e011760201c565b60006001600160e01b03821115620006155760405162461bcd60e51b815260206004820152602760248201527f53616665436173743a2076616c756520646f65736e27742066697420696e20326044820152663234206269747360c81b6064820152608401620002a7565b5090565b600063ffffffff821115620006155760405162461bcd60e51b815260206004820152602660248201527f53616665436173743a2076616c756520646f65736e27742066697420696e203360448201526532206269747360d01b6064820152608401620002a7565b620006988383836200058d60201b62000e331760201c565b6001600160a01b038381166000908152600860205260408082205485841683529120546200058d92918216911683818314801590620006d75750600081115b156200058d576001600160a01b0383161562000764576001600160a01b038316600090815260096020908152604082208291620007219190620007ef901b62000e381785620003db565b91509150846001600160a01b031660008051602062002a5b833981519152838360405162000759929190918252602082015260400190565b60405180910390a250505b6001600160a01b038216156200058d576001600160a01b038216600090815260096020908152604082208291620007a89190620003c4901b62000d231785620003db565b91509150836001600160a01b031660008051602062002a5b8339815191528383604051620007e0929190918252602082015260400190565b60405180910390a25050505050565b6000620003d28284620009fa565b8280546200080b9062000a2a565b90600052602060002090601f0160209004810192826200082f57600085556200087a565b82601f106200084a57805160ff19168380011785556200087a565b828001600101855582156200087a579182015b828111156200087a5782518255916020019190600101906200085d565b50620006159291505b8082111562000615576000815560010162000883565b634e487b7160e01b600052601160045260246000fd5b600181815b80851115620008f0578160001904821115620008d457620008d462000899565b80851615620008e257918102915b93841c9390800290620008b4565b509250929050565b6000826200090957506001620003d5565b816200091857506000620003d5565b81600181146200093157600281146200093c576200095c565b6001915050620003d5565b60ff84111562000950576200095062000899565b50506001821b620003d5565b5060208310610133831016604e8410600b841016171562000981575081810a620003d5565b6200098d8383620008af565b8060001904821115620009a457620009a462000899565b029392505050565b6000620003d260ff841683620008f8565b6000816000190483118215151615620009da57620009da62000899565b500290565b60008219821115620009f557620009f562000899565b500190565b60008282101562000a0f5762000a0f62000899565b500390565b634e487b7160e01b600052603260045260246000fd5b600181811c9082168062000a3f57607f821691505b60208210810362000a6057634e487b7160e01b600052602260045260246000fd5b50919050565b60805160a05160c05160e0516101005161012051611fa562000ab6600039600061123a0152600061128901526000611264015260006111bd015260006111e7015260006112110152611fa56000f3fe608060405234801561001057600080fd5b50600436106101c45760003560e01c8063715018a6116100f9578063a457c2d711610097578063d505accf11610071578063d505accf146103e2578063dd62ed3e146103f5578063f1127ed814610408578063f2fde38b1461044557600080fd5b8063a457c2d7146103a9578063a9059cbb146103bc578063c3cda520146103cf57600080fd5b80638da5cb5b116100d35780638da5cb5b1461036a5780638e539e8c1461037b57806395d89b411461038e5780639ab24eb01461039657600080fd5b8063715018a61461033c57806379cc6790146103445780637ecebe001461035757600080fd5b80633a46b1a811610166578063587cde1e11610140578063587cde1e146102945780635c19a95c146102d85780636fcfff45146102eb57806370a082311461031357600080fd5b80633a46b1a81461025957806340c10f191461026c57806342966c681461028157600080fd5b806323b872dd116101a257806323b872dd1461021c578063313ce5671461022f5780633644e5151461023e578063395093511461024657600080fd5b806306fdde03146101c9578063095ea7b3146101e757806318160ddd1461020a575b600080fd5b6101d1610458565b6040516101de9190611c57565b60405180910390f35b6101fa6101f5366004611cc8565b6104ea565b60405190151581526020016101de565b6002545b6040519081526020016101de565b6101fa61022a366004611cf2565b610502565b604051601281526020016101de565b61020e610526565b6101fa610254366004611cc8565b610535565b61020e610267366004611cc8565b610557565b61027f61027a366004611cc8565b6105d6565b005b61027f61028f366004611d2e565b6105ec565b6102c06102a2366004611d47565b6001600160a01b039081166000908152600860205260409020541690565b6040516001600160a01b0390911681526020016101de565b61027f6102e6366004611d47565b6105f9565b6102fe6102f9366004611d47565b610603565b60405163ffffffff90911681526020016101de565b61020e610321366004611d47565b6001600160a01b031660009081526020819052604090205490565b61027f61062b565b61027f610352366004611cc8565b61063f565b61020e610365366004611d47565b610654565b6005546001600160a01b03166102c0565b61020e610389366004611d2e565b610672565b6101d16106ce565b61020e6103a4366004611d47565b6106dd565b6101fa6103b7366004611cc8565b610764565b6101fa6103ca366004611cc8565b6107df565b61027f6103dd366004611d73565b6107ed565b61027f6103f0366004611dcb565b610923565b61020e610403366004611e35565b610a87565b61041b610416366004611e68565b610ab2565b60408051825163ffffffff1681526020928301516001600160e01b031692810192909252016101de565b61027f610453366004611d47565b610b36565b60606003805461046790611ea8565b80601f016020809104026020016040519081016040528092919081815260200182805461049390611ea8565b80156104e05780601f106104b5576101008083540402835291602001916104e0565b820191906000526020600020905b8154815290600101906020018083116104c357829003601f168201915b5050505050905090565b6000336104f8818585610e44565b5060019392505050565b600033610510858285610f68565b61051b858585610fdc565b506001949350505050565b60006105306111b0565b905090565b6000336104f88185856105488383610a87565b6105529190611ef2565b610e44565b60004382106105ad5760405162461bcd60e51b815260206004820152601f60248201527f4552433230566f7465733a20626c6f636b206e6f7420796574206d696e65640060448201526064015b60405180910390fd5b6001600160a01b03831660009081526009602052604090206105cf90836112d7565b9392505050565b6105de611394565b6105e882826113ee565b5050565b6105f633826113f8565b50565b6105f63382611402565b6001600160a01b03811660009081526009602052604081205461062590610d9c565b92915050565b610633611394565b61063d600061147b565b565b61064a823383610f68565b6105e882826113f8565b6001600160a01b038116600090815260066020526040812054610625565b60004382106106c35760405162461bcd60e51b815260206004820152601f60248201527f4552433230566f7465733a20626c6f636b206e6f7420796574206d696e65640060448201526064016105a4565b610625600a836112d7565b60606004805461046790611ea8565b6001600160a01b0381166000908152600960205260408120548015610751576001600160a01b038316600090815260096020526040902061071f600183611f0a565b8154811061072f5761072f611f21565b60009182526020909120015464010000000090046001600160e01b0316610754565b60005b6001600160e01b03169392505050565b600033816107728286610a87565b9050838110156107d25760405162461bcd60e51b815260206004820152602560248201527f45524332303a2064656372656173656420616c6c6f77616e63652062656c6f77604482015264207a65726f60d81b60648201526084016105a4565b61051b8286868403610e44565b6000336104f8818585610fdc565b8342111561083d5760405162461bcd60e51b815260206004820152601d60248201527f4552433230566f7465733a207369676e6174757265206578706972656400000060448201526064016105a4565b604080517fe48329057bfd03d55e49b547132e39cffd9c1820ad7b9d4c5307691425d15adf60208201526001600160a01b0388169181019190915260608101869052608081018590526000906108b7906108af9060a001604051602081830303815290604052805190602001206114cd565b85858561151b565b90506108c281611543565b86146109105760405162461bcd60e51b815260206004820152601960248201527f4552433230566f7465733a20696e76616c6964206e6f6e63650000000000000060448201526064016105a4565b61091a8188611402565b50505050505050565b834211156109735760405162461bcd60e51b815260206004820152601d60248201527f45524332305065726d69743a206578706972656420646561646c696e6500000060448201526064016105a4565b60007f6e71edae12b1b97f4d1f60370fef10105fa2faae0126114a169c64845d6126c98888886109a28c611543565b6040805160208101969096526001600160a01b0394851690860152929091166060840152608083015260a082015260c0810186905260e00160405160208183030381529060405280519060200120905060006109fd826114cd565b90506000610a0d8287878761151b565b9050896001600160a01b0316816001600160a01b031614610a705760405162461bcd60e51b815260206004820152601e60248201527f45524332305065726d69743a20696e76616c6964207369676e6174757265000060448201526064016105a4565b610a7b8a8a8a610e44565b50505050505050505050565b6001600160a01b03918216600090815260016020908152604080832093909416825291909152205490565b60408051808201909152600080825260208201526001600160a01b0383166000908152600960205260409020805463ffffffff8416908110610af657610af6611f21565b60009182526020918290206040805180820190915291015463ffffffff8116825264010000000090046001600160e01b0316918101919091529392505050565b610b3e611394565b6001600160a01b038116610ba35760405162461bcd60e51b815260206004820152602660248201527f4f776e61626c653a206e6577206f776e657220697320746865207a65726f206160448201526564647265737360d01b60648201526084016105a4565b6105f68161147b565b610bb68282610c3c565b6002546001600160e01b031015610c285760405162461bcd60e51b815260206004820152603060248201527f4552433230566f7465733a20746f74616c20737570706c79207269736b73206f60448201526f766572666c6f77696e6720766f74657360801b60648201526084016105a4565b610c36600a610d238361156b565b50505050565b6001600160a01b038216610c925760405162461bcd60e51b815260206004820152601f60248201527f45524332303a206d696e7420746f20746865207a65726f20616464726573730060448201526064016105a4565b8060026000828254610ca49190611ef2565b90915550506001600160a01b03821660009081526020819052604081208054839290610cd1908490611ef2565b90915550506040518181526001600160a01b038316906000907fddf252ad1be2c89b69c2b068fc378daa952ba7f163c4a11628f55a4df523b3ef9060200160405180910390a36105e8600083836116e4565b60006105cf8284611ef2565b60006001600160e01b03821115610d985760405162461bcd60e51b815260206004820152602760248201527f53616665436173743a2076616c756520646f65736e27742066697420696e20326044820152663234206269747360c81b60648201526084016105a4565b5090565b600063ffffffff821115610d985760405162461bcd60e51b815260206004820152602660248201527f53616665436173743a2076616c756520646f65736e27742066697420696e203360448201526532206269747360d01b60648201526084016105a4565b6001600160a01b03838116600090815260086020526040808220548584168352912054610e33929182169116836116ef565b505050565b60006105cf8284611f0a565b6001600160a01b038316610ea65760405162461bcd60e51b8152602060048201526024808201527f45524332303a20617070726f76652066726f6d20746865207a65726f206164646044820152637265737360e01b60648201526084016105a4565b6001600160a01b038216610f075760405162461bcd60e51b815260206004820152602260248201527f45524332303a20617070726f766520746f20746865207a65726f206164647265604482015261737360f01b60648201526084016105a4565b6001600160a01b0383811660008181526001602090815260408083209487168084529482529182902085905590518481527f8c5be1e5ebec7d5bd14f71427d1e84f3dd0314c0f7b2291e5b200ac8c7c3b925910160405180910390a3505050565b6000610f748484610a87565b90506000198114610c365781811015610fcf5760405162461bcd60e51b815260206004820152601d60248201527f45524332303a20696e73756666696369656e7420616c6c6f77616e636500000060448201526064016105a4565b610c368484848403610e44565b6001600160a01b0383166110405760405162461bcd60e51b815260206004820152602560248201527f45524332303a207472616e736665722066726f6d20746865207a65726f206164604482015264647265737360d81b60648201526084016105a4565b6001600160a01b0382166110a25760405162461bcd60e51b815260206004820152602360248201527f45524332303a207472616e7366657220746f20746865207a65726f206164647260448201526265737360e81b60648201526084016105a4565b6001600160a01b0383166000908152602081905260409020548181101561111a5760405162461bcd60e51b815260206004820152602660248201527f45524332303a207472616e7366657220616d6f756e7420657863656564732062604482015265616c616e636560d01b60648201526084016105a4565b6001600160a01b03808516600090815260208190526040808220858503905591851681529081208054849290611151908490611ef2565b92505081905550826001600160a01b0316846001600160a01b03167fddf252ad1be2c89b69c2b068fc378daa952ba7f163c4a11628f55a4df523b3ef8460405161119d91815260200190565b60405180910390a3610c368484846116e4565b6000306001600160a01b037f00000000000000000000000000000000000000000000000000000000000000001614801561120957507f000000000000000000000000000000000000000000000000000000000000000046145b1561123357507f000000000000000000000000000000000000000000000000000000000000000090565b50604080517f00000000000000000000000000000000000000000000000000000000000000006020808301919091527f0000000000000000000000000000000000000000000000000000000000000000828401527f000000000000000000000000000000000000000000000000000000000000000060608301524660808301523060a0808401919091528351808403909101815260c0909201909252805191012090565b8154600090815b8181101561133b5760006112f2828461182c565b90508486828154811061130757611307611f21565b60009182526020909120015463ffffffff16111561132757809250611335565b611332816001611ef2565b91505b506112de565b811561137f578461134d600184611f0a565b8154811061135d5761135d611f21565b60009182526020909120015464010000000090046001600160e01b0316611382565b60005b6001600160e01b031695945050505050565b6005546001600160a01b0316331461063d5760405162461bcd60e51b815260206004820181905260248201527f4f776e61626c653a2063616c6c6572206973206e6f7420746865206f776e657260448201526064016105a4565b6105e88282610bac565b6105e88282611847565b6001600160a01b038281166000818152600860208181526040808420805485845282862054949093528787166001600160a01b03198416811790915590519190951694919391928592917f3134e8a2e6d97e929a7e54011ea5485d7d196dd5f0ba4d4ef95803e8e3fc257f9190a4610c368284836116ef565b600580546001600160a01b038381166001600160a01b0319831681179093556040519116919082907f8be0079c531659141344cd1fd0a4f28419497f9722a3daafe3b4186f6b6457e090600090a35050565b60006106256114da6111b0565b8360405161190160f01b6020820152602281018390526042810182905260009060620160405160208183030381529060405280519060200120905092915050565b600080600061152c8787878761185f565b915091506115398161194c565b5095945050505050565b6001600160a01b03811660009081526006602052604090208054600181018255905b50919050565b8254600090819080156115b65785611584600183611f0a565b8154811061159457611594611f21565b60009182526020909120015464010000000090046001600160e01b03166115b9565b60005b6001600160e01b031692506115d283858763ffffffff16565b9150600081118015611610575043866115ec600184611f0a565b815481106115fc576115fc611f21565b60009182526020909120015463ffffffff16145b156116705761161e82610d2f565b8661162a600184611f0a565b8154811061163a5761163a611f21565b9060005260206000200160000160046101000a8154816001600160e01b0302191690836001600160e01b031602179055506116db565b85604051806040016040528061168543610d9c565b63ffffffff16815260200161169985610d2f565b6001600160e01b0390811690915282546001810184556000938452602093849020835194909301519091166401000000000263ffffffff909316929092179101555b50935093915050565b610e33838383610e01565b816001600160a01b0316836001600160a01b0316141580156117115750600081115b15610e33576001600160a01b0383161561179f576001600160a01b0383166000908152600960205260408120819061174c90610e388561156b565b91509150846001600160a01b03167fdec2bacdd2f05b59de34da9b523dff8be42e5e38e818c82fdb0bae774387a7248383604051611794929190918252602082015260400190565b60405180910390a250505b6001600160a01b03821615610e33576001600160a01b038216600090815260096020526040812081906117d590610d238561156b565b91509150836001600160a01b03167fdec2bacdd2f05b59de34da9b523dff8be42e5e38e818c82fdb0bae774387a724838360405161181d929190918252602082015260400190565b60405180910390a25050505050565b600061183b6002848418611f37565b6105cf90848416611ef2565b6118518282611b02565b610c36600a610e388361156b565b6000807f7fffffffffffffffffffffffffffffff5d576e7357a4501ddfe92f46681b20a08311156118965750600090506003611943565b8460ff16601b141580156118ae57508460ff16601c14155b156118bf5750600090506004611943565b6040805160008082526020820180845289905260ff881692820192909252606081018690526080810185905260019060a0016020604051602081039080840390855afa158015611913573d6000803e3d6000fd5b5050604051601f1901519150506001600160a01b03811661193c57600060019250925050611943565b9150600090505b94509492505050565b600081600481111561196057611960611f59565b036119685750565b600181600481111561197c5761197c611f59565b036119c95760405162461bcd60e51b815260206004820152601860248201527f45434453413a20696e76616c6964207369676e6174757265000000000000000060448201526064016105a4565b60028160048111156119dd576119dd611f59565b03611a2a5760405162461bcd60e51b815260206004820152601f60248201527f45434453413a20696e76616c6964207369676e6174757265206c656e6774680060448201526064016105a4565b6003816004811115611a3e57611a3e611f59565b03611a965760405162461bcd60e51b815260206004820152602260248201527f45434453413a20696e76616c6964207369676e6174757265202773272076616c604482015261756560f01b60648201526084016105a4565b6004816004811115611aaa57611aaa611f59565b036105f65760405162461bcd60e51b815260206004820152602260248201527f45434453413a20696e76616c6964207369676e6174757265202776272076616c604482015261756560f01b60648201526084016105a4565b6001600160a01b038216611b625760405162461bcd60e51b815260206004820152602160248201527f45524332303a206275726e2066726f6d20746865207a65726f206164647265736044820152607360f81b60648201526084016105a4565b6001600160a01b03821660009081526020819052604090205481811015611bd65760405162461bcd60e51b815260206004820152602260248201527f45524332303a206275726e20616d6f756e7420657863656564732062616c616e604482015261636560f01b60648201526084016105a4565b6001600160a01b0383166000908152602081905260408120838303905560028054849290611c05908490611f0a565b90915550506040518281526000906001600160a01b038516907fddf252ad1be2c89b69c2b068fc378daa952ba7f163c4a11628f55a4df523b3ef9060200160405180910390a3610e33836000846116e4565b600060208083528351808285015260005b81811015611c8457858101830151858201604001528201611c68565b81811115611c96576000604083870101525b50601f01601f1916929092016040019392505050565b80356001600160a01b0381168114611cc357600080fd5b919050565b60008060408385031215611cdb57600080fd5b611ce483611cac565b946020939093013593505050565b600080600060608486031215611d0757600080fd5b611d1084611cac565b9250611d1e60208501611cac565b9150604084013590509250925092565b600060208284031215611d4057600080fd5b5035919050565b600060208284031215611d5957600080fd5b6105cf82611cac565b803560ff81168114611cc357600080fd5b60008060008060008060c08789031215611d8c57600080fd5b611d9587611cac565b95506020870135945060408701359350611db160608801611d62565b92506080870135915060a087013590509295509295509295565b600080600080600080600060e0888a031215611de657600080fd5b611def88611cac565b9650611dfd60208901611cac565b95506040880135945060608801359350611e1960808901611d62565b925060a0880135915060c0880135905092959891949750929550565b60008060408385031215611e4857600080fd5b611e5183611cac565b9150611e5f60208401611cac565b90509250929050565b60008060408385031215611e7b57600080fd5b611e8483611cac565b9150602083013563ffffffff81168114611e9d57600080fd5b809150509250929050565b600181811c90821680611ebc57607f821691505b60208210810361156557634e487b7160e01b600052602260045260246000fd5b634e487b7160e01b600052601160045260246000fd5b60008219821115611f0557611f05611edc565b500190565b600082821015611f1c57611f1c611edc565b500390565b634e487b7160e01b600052603260045260246000fd5b600082611f5457634e487b7160e01b600052601260045260246000fd5b500490565b634e487b7160e01b600052602160045260246000fdfea2646970667358221220a20f2497f091a0efeeea03e96452349a57f82649aa9a75c6b5377f235256212d64736f6c634300080d0033dec2bacdd2f05b59de34da9b523dff8be42e5e38e818c82fdb0bae774387a724",
  "linkReferences": {},
  "deployedLinkReferences": {}
}