{
  "_format": "hh-sol-artifact-1",
  "contractName": "GitshockOptimalOneSIdedSupply",
  "sourceName": "contracts/GitshockOptimalOneSIdedSupply.sol",
  "abi": [
    {
      "inputs": [
        {
          "internalType": "uint256",
          "name": "r",
          "type": "uint256"
        },
        {
          "internalType": "uint256",
          "name": "a",
          "type": "uint256"
        }
      ],
      "name": "getSwapAmount",
      "outputs": [
        {
          "internalType": "uint256",
          "name": "",
          "type": "uint256"
        }
      ],
      "stateMutability": "pure",
      "type": "function"
    },
    {
      "inputs": [
        {
          "internalType": "address",
          "name": "_tokenA",
          "type": "address"
        },
        {
          "internalType": "address",
          "name": "_tokenB",
          "type": "address"
        },
        {
          "internalType": "uint256",
          "name": "_amountA",
          "type": "uint256"
        }
      ],
      "name": "zap",
      "outputs": [],
      "stateMutability": "nonpayable",
      "type": "function"
    }
  ],
  "bytecode": "0x608060405234801561001057600080fd5b50610bc5806100206000396000f3fe608060405234801561001057600080fd5b50600436106100365760003560e01c8063368519f31461003b57806347ce3e6914610060575b600080fd5b61004e610049366004610846565b610075565b60405190815260200160405180910390f35b61007361006e366004610880565b6100d7565b005b60006107ca610086846107cd6108d7565b6100bc61009685623cda206108d7565b6100a387623cda296108d7565b6100ad91906108f6565b6100b790876108d7565b61038b565b6100c6919061090e565b6100d09190610925565b9392505050565b6001600160a01b03831673c02aaa39b223fe8d0a0e5c4f27ead9083c756cc2148061011e57506001600160a01b03821673c02aaa39b223fe8d0a0e5c4f27ead9083c756cc2145b6101565760405162461bcd60e51b8152602060048201526005602482015264042eecae8d60db1b604482015260640160405180910390fd5b6040516323b872dd60e01b8152336004820152306024820152604481018290526001600160a01b038416906323b872dd906064016020604051808303816000875af11580156101a9573d6000803e3d6000fd5b505050506040513d601f19601f820116820180604052508101906101cd9190610947565b5060405163e6a4390560e01b81526001600160a01b03808516600483015283166024820152600090735c69bee701ef814a2b6a3edd4b1652cb9cc5aa6f9063e6a4390590604401602060405180830381865afa158015610231573d6000803e3d6000fd5b505050506040513d601f19601f820116820180604052508101906102559190610969565b9050600080826001600160a01b0316630902f1ac6040518163ffffffff1660e01b8152600401606060405180830381865afa158015610298573d6000803e3d6000fd5b505050506040513d601f19601f820116820180604052508101906102bc919061099d565b506001600160701b031691506001600160701b031691506000866001600160a01b0316846001600160a01b0316630dfe16816040518163ffffffff1660e01b8152600401602060405180830381865afa15801561031d573d6000803e3d6000fd5b505050506040513d601f19601f820116820180604052508101906103419190610969565b6001600160a01b031603610360576103598386610075565b905061036d565b61036a8286610075565b90505b6103788787836103fb565b61038287876105b0565b50505050505050565b600060038211156103ec57508060006103a5600283610925565b6103b09060016108f6565b90505b818110156103e6579050806002816103cb8186610925565b6103d591906108f6565b6103df9190610925565b90506103b3565b50919050565b81156103f6575060015b919050565b60405163095ea7b360e01b8152737a250d5630b4cf539739df2c5dacb4c659f2488d6004820152602481018290526001600160a01b0384169063095ea7b3906044016020604051808303816000875af115801561045c573d6000803e3d6000fd5b505050506040513d601f19601f820116820180604052508101906104809190610947565b50604080516002808252606082018352600092602083019080368337505060408051600280825260608201835293945092915060208301908036833701905050905083816000815181106104d6576104d6610a03565b60200260200101906001600160a01b031690816001600160a01b031681525050828160018151811061050a5761050a610a03565b6001600160a01b03909216602092830291909101909101526040516338ed173960e01b8152737a250d5630b4cf539739df2c5dacb4c659f2488d906338ed173990610562908590600190869030904290600401610a19565b6000604051808303816000875af1158015610581573d6000803e3d6000fd5b505050506040513d6000823e601f3d908101601f191682016040526105a99190810190610a8a565b5050505050565b6040516370a0823160e01b81523060048201526000906001600160a01b038416906370a0823190602401602060405180830381865afa1580156105f7573d6000803e3d6000fd5b505050506040513d601f19601f8201168201806040525081019061061b9190610b48565b6040516370a0823160e01b81523060048201529091506000906001600160a01b038416906370a0823190602401602060405180830381865afa158015610665573d6000803e3d6000fd5b505050506040513d601f19601f820116820180604052508101906106899190610b48565b60405163095ea7b360e01b8152737a250d5630b4cf539739df2c5dacb4c659f2488d6004820152602481018490529091506001600160a01b0385169063095ea7b3906044016020604051808303816000875af11580156106ed573d6000803e3d6000fd5b505050506040513d601f19601f820116820180604052508101906107119190610947565b5060405163095ea7b360e01b8152737a250d5630b4cf539739df2c5dacb4c659f2488d6004820152602481018290526001600160a01b0384169063095ea7b3906044016020604051808303816000875af1158015610773573d6000803e3d6000fd5b505050506040513d601f19601f820116820180604052508101906107979190610947565b5060405162e8e33760e81b81526001600160a01b03808616600483015284166024820152604481018390526064810182905260006084820181905260a48201523060c48201524260e4820152737a250d5630b4cf539739df2c5dacb4c659f2488d9063e8e3370090610104016060604051808303816000875af1158015610822573d6000803e3d6000fd5b505050506040513d601f19601f820116820180604052508101906103829190610b61565b6000806040838503121561085957600080fd5b50508035926020909101359150565b6001600160a01b038116811461087d57600080fd5b50565b60008060006060848603121561089557600080fd5b83356108a081610868565b925060208401356108b081610868565b929592945050506040919091013590565b634e487b7160e01b600052601160045260246000fd5b60008160001904831182151516156108f1576108f16108c1565b500290565b60008219821115610909576109096108c1565b500190565b600082821015610920576109206108c1565b500390565b60008261094257634e487b7160e01b600052601260045260246000fd5b500490565b60006020828403121561095957600080fd5b815180151581146100d057600080fd5b60006020828403121561097b57600080fd5b81516100d081610868565b80516001600160701b03811681146103f657600080fd5b6000806000606084860312156109b257600080fd5b6109bb84610986565b92506109c960208501610986565b9150604084015163ffffffff811681146109e257600080fd5b809150509250925092565b634e487b7160e01b600052604160045260246000fd5b634e487b7160e01b600052603260045260246000fd5b600060a082018783526020878185015260a0604085015281875180845260c086019150828901935060005b81811015610a695784516001600160a01b031683529383019391830191600101610a44565b50506001600160a01b03969096166060850152505050608001529392505050565b60006020808385031215610a9d57600080fd5b825167ffffffffffffffff80821115610ab557600080fd5b818501915085601f830112610ac957600080fd5b815181811115610adb57610adb6109ed565b8060051b604051601f19603f83011681018181108582111715610b0057610b006109ed565b604052918252848201925083810185019188831115610b1e57600080fd5b938501935b82851015610b3c57845184529385019392850192610b23565b98975050505050505050565b600060208284031215610b5a57600080fd5b5051919050565b600080600060608486031215610b7657600080fd5b835192506020840151915060408401519050925092509256fea2646970667358221220c7b3dfa68fdfcbe5c59f6ae0dbfe7f427041d99dc8982af35d30e28b76159ba164736f6c634300080d0033",
  "linkReferences": {},
  "deployedLinkReferences": {}
}