{
  "_format": "hh-sol-artifact-1",
  "contractName": "StableAMMGitshock",
  "sourceName": "contracts/StableAMMGitshock.sol",
  "abi": [
    {
      "inputs": [
        {
          "internalType": "uint256[3]",
          "name": "amounts",
          "type": "uint256[3]"
        },
        {
          "internalType": "uint256",
          "name": "minShares",
          "type": "uint256"
        }
      ],
      "name": "addLiquidity",
      "outputs": [
        {
          "internalType": "uint256",
          "name": "shares",
          "type": "uint256"
        }
      ],
      "stateMutability": "nonpayable",
      "type": "function"
    },
    {
      "inputs": [
        {
          "internalType": "address",
          "name": "",
          "type": "address"
        }
      ],
      "name": "balanceOf",
      "outputs": [
        {
          "internalType": "uint256",
          "name": "",
          "type": "uint256"
        }
      ],
      "stateMutability": "view",
      "type": "function"
    },
    {
      "inputs": [
        {
          "internalType": "uint256",
          "name": "",
          "type": "uint256"
        }
      ],
      "name": "balances",
      "outputs": [
        {
          "internalType": "uint256",
          "name": "",
          "type": "uint256"
        }
      ],
      "stateMutability": "view",
      "type": "function"
    },
    {
      "inputs": [
        {
          "internalType": "uint256",
          "name": "shares",
          "type": "uint256"
        },
        {
          "internalType": "uint256",
          "name": "i",
          "type": "uint256"
        }
      ],
      "name": "calcWithdrawOneToken",
      "outputs": [
        {
          "internalType": "uint256",
          "name": "dy",
          "type": "uint256"
        },
        {
          "internalType": "uint256",
          "name": "fee",
          "type": "uint256"
        }
      ],
      "stateMutability": "view",
      "type": "function"
    },
    {
      "inputs": [],
      "name": "getVirtualPrice",
      "outputs": [
        {
          "internalType": "uint256",
          "name": "",
          "type": "uint256"
        }
      ],
      "stateMutability": "view",
      "type": "function"
    },
    {
      "inputs": [
        {
          "internalType": "uint256",
          "name": "shares",
          "type": "uint256"
        },
        {
          "internalType": "uint256[3]",
          "name": "minAmountsOut",
          "type": "uint256[3]"
        }
      ],
      "name": "removeLiquidity",
      "outputs": [
        {
          "internalType": "uint256[3]",
          "name": "amountsOut",
          "type": "uint256[3]"
        }
      ],
      "stateMutability": "nonpayable",
      "type": "function"
    },
    {
      "inputs": [
        {
          "internalType": "uint256",
          "name": "shares",
          "type": "uint256"
        },
        {
          "internalType": "uint256",
          "name": "i",
          "type": "uint256"
        },
        {
          "internalType": "uint256",
          "name": "minAmountOut",
          "type": "uint256"
        }
      ],
      "name": "removeLiquidityOneToken",
      "outputs": [
        {
          "internalType": "uint256",
          "name": "amountOut",
          "type": "uint256"
        }
      ],
      "stateMutability": "nonpayable",
      "type": "function"
    },
    {
      "inputs": [
        {
          "internalType": "uint256",
          "name": "i",
          "type": "uint256"
        },
        {
          "internalType": "uint256",
          "name": "j",
          "type": "uint256"
        },
        {
          "internalType": "uint256",
          "name": "dx",
          "type": "uint256"
        },
        {
          "internalType": "uint256",
          "name": "minDy",
          "type": "uint256"
        }
      ],
      "name": "swap",
      "outputs": [
        {
          "internalType": "uint256",
          "name": "dy",
          "type": "uint256"
        }
      ],
      "stateMutability": "nonpayable",
      "type": "function"
    },
    {
      "inputs": [
        {
          "internalType": "uint256",
          "name": "",
          "type": "uint256"
        }
      ],
      "name": "tokens",
      "outputs": [
        {
          "internalType": "address",
          "name": "",
          "type": "address"
        }
      ],
      "stateMutability": "view",
      "type": "function"
    },
    {
      "inputs": [],
      "name": "totalSupply",
      "outputs": [
        {
          "internalType": "uint256",
          "name": "",
          "type": "uint256"
        }
      ],
      "stateMutability": "view",
      "type": "function"
    }
  ],
  "bytecode": "0x60e06040526001608090815264e8d4a5100060a081905260c0526200002890600390816200003d565b503480156200003657600080fd5b50620000a0565b826003810192821562000077579160200282015b8281111562000077578251829064ffffffffff1690559160200191906001019062000051565b506200008592915062000089565b5090565b5b808211156200008557600081556001016200008a565b61171e80620000b06000396000f3fe608060405234801561001057600080fd5b506004361061009e5760003560e01c806370a082311161006657806370a0823114610123578063a4bf044614610143578063a60dc3b114610156578063d035862c1461017e578063e25aa5fa1461019e57600080fd5b806318160ddd146100a35780634903b0d1146100bf5780634f64b2be146100d25780635673b02d146100fd5780637066b5b214610110575b600080fd5b6100ac60095481565b6040519081526020015b60405180910390f35b6100ac6100cd3660046113c5565b6101a6565b6100e56100e03660046113c5565b6101bd565b6040516001600160a01b0390911681526020016100b6565b6100ac61010b3660046113de565b6101dd565b6100ac61011e366004611410565b6104a9565b6100ac61013136600461143c565b600a6020526000908152604090205481565b6100ac610151366004611476565b6105b7565b6101696101643660046114a1565b610978565b604080519283526020830191909152016100b6565b61019161018c3660046114c3565b610990565b6040516100b691906114f0565b6100ac610b16565b600681600381106101b657600080fd5b0154905081565b600081600381106101cd57600080fd5b01546001600160a01b0316905081565b600083850361021b5760405162461bcd60e51b815260206004820152600560248201526434901e903560d91b60448201526064015b60405180910390fd5b6000856003811061022e5761022e611521565b01546040516323b872dd60e01b8152336004820152306024820152604481018590526001600160a01b03909116906323b872dd906064016020604051808303816000875af1158015610284573d6000803e3d6000fd5b505050506040513d601f19601f820116820180604052508101906102a89190611537565b5060006102b3610b66565b90506000600387600381106102ca576102ca611521565b01546102d6908661156f565b8288600381106102e8576102e8611521565b60200201516102f7919061158e565b9050600082876003811061030d5761030d611521565b60200201519050600061032289898587610bd9565b90506003886003811061033757610337611521565b0154600161034583856115a6565b61034f91906115a6565b61035991906115bd565b94506000620f424061036d61012c8861156f565b61037791906115bd565b905061038381876115a6565b9550868610156103c05760405162461bcd60e51b8152602060048201526008602482015267323c901e1036b4b760c11b6044820152606401610212565b8760068b600381106103d4576103d4611521565b0160008282546103e4919061158e565b9091555086905060068a600381106103fe576103fe611521565b01600082825461040e91906115a6565b9091555060009050896003811061042757610427611521565b015460405163a9059cbb60e01b8152336004820152602481018890526001600160a01b039091169063a9059cbb906044016020604051808303816000875af1158015610477573d6000803e3d6000fd5b505050506040513d601f19601f8201168201806040525081019061049b9190611537565b505050505050949350505050565b60006104b58484610d9b565b509050818110156104f45760405162461bcd60e51b815260206004820152600960248201526837baba101e1036b4b760b91b6044820152606401610212565b806006846003811061050857610508611521565b01600082825461051891906115a6565b9091555061052890503385610fcd565b6000836003811061053b5761053b611521565b015460405163a9059cbb60e01b8152336004820152602481018390526001600160a01b039091169063a9059cbb906044016020604051808303816000875af115801561058b573d6000803e3d6000fd5b505050506040513d601f19601f820116820180604052508101906105af9190611537565b509392505050565b60095460009081806105c7610b66565b905082156105db576105d881611017565b91505b6105e36113a7565b60005b600381101561073a57600088826003811061060357610603611521565b6020020135905080156106fa576000826003811061062357610623611521565b01546040516323b872dd60e01b8152336004820152306024820152604481018390526001600160a01b03909116906323b872dd906064016020604051808303816000875af1158015610679573d6000803e3d6000fd5b505050506040513d601f19601f8201168201806040525081019061069d9190611537565b50600382600381106106b1576106b1611521565b01546106bd908261156f565b8483600381106106cf576106cf611521565b60200201516106de919061158e565b8383600381106106f0576106f0611521565b6020020152610729565b83826003811061070c5761070c611521565b602002015183836003811061072357610723611521565b60200201525b50610733816115df565b90506105e6565b50600061074682611017565b90508381116107975760405162461bcd60e51b815260206004820152601960248201527f6c6971756964697479206469646e277420696e637265617365000000000000006044820152606401610212565b600085156108925760005b600381101561088157600086848784600381106107c1576107c1611521565b60200201516107d0919061156f565b6107da91906115bd565b905060006107fe8684600381106107f3576107f3611521565b6020020151836111ca565b9050620f424081610811600160036115a6565b61081c90600461156f565b610829600361012c61156f565b61083391906115bd565b61083d919061156f565b61084791906115bd565b86846003811061085957610859611521565b6020020181815161086a91906115a6565b90525061087a91508290506115df565b90506107a2565b5061088b83611017565b9050610895565b50805b60005b60038110156108f1578981600381106108b3576108b3611521565b6020020135600682600381106108cb576108cb611521565b0160008282546108db919061158e565b909155506108ea9050816115df565b9050610898565b50851561091f57848661090482846115a6565b61090e919061156f565b61091891906115bd565b9650610923565b8096505b878710156109625760405162461bcd60e51b815260206004820152600c60248201526b39b430b932b9901e1036b4b760a11b6044820152606401610212565b61096c33886111f6565b50505050505092915050565b6000806109858484610d9b565b915091509250929050565b6109986113a7565b60095460005b6003811015610b045760008286600684600381106109be576109be611521565b01546109ca919061156f565b6109d491906115bd565b90508482600381106109e8576109e8611521565b6020020135811015610a285760405162461bcd60e51b815260206004820152600960248201526837baba101e1036b4b760b91b6044820152606401610212565b8060068360038110610a3c57610a3c611521565b016000828254610a4c91906115a6565b90915550819050848360038110610a6557610a65611521565b602002015260008260038110610a7d57610a7d611521565b015460405163a9059cbb60e01b8152336004820152602481018390526001600160a01b039091169063a9059cbb906044016020604051808303816000875af1158015610acd573d6000803e3d6000fd5b505050506040513d601f19601f82011682018060405250810190610af19190611537565b505080610afd906115df565b905061099e565b50610b0f3385610fcd565b5092915050565b600080610b29610b24610b66565b611017565b6009549091508015610b5d5780610b426012600a6116dc565b610b4c908461156f565b610b5691906115bd565b9250505090565b60009250505090565b610b6e6113a7565b60005b6003811015610bd55760038160038110610b8d57610b8d611521565b015460068260038110610ba257610ba2611521565b0154610bae919061156f565b828260038110610bc057610bc0611521565b6020020152610bce816115df565b9050610b71565b5090565b6000806003610be96001826115a6565b610bf49060036116dc565b610c00906103e861156f565b610c0a919061156f565b90506000610c1784611017565b905060008181805b6003811015610c96578a8103610c3757889150610c58565b808a14610c8657878160038110610c5057610c50611521565b602002015191505b610c62828561158e565b9350610c6f82600361156f565b610c79868561156f565b610c8391906115bd565b92505b610c8f816115df565b9050610c1f565b50610ca285600361156f565b610cac858461156f565b610cb691906115bd565b91506000610cc486866115bd565b610cce908561158e565b9050600085815b60ff811015610d56578192508784836002610cf0919061156f565b610cfa919061158e565b610d0491906115a6565b86610d0f848061156f565b610d19919061158e565b610d2391906115bd565b91506001610d3183856111ca565b11610d4657509750610d939650505050505050565b610d4f816115df565b9050610cd5565b5060405162461bcd60e51b815260206004820152601160248201527079206469646e277420636f6e766572676560781b6044820152606401610212565b949350505050565b600954600090819081610dac610b66565b90506000610db982611017565b9050600083610dc8898461156f565b610dd291906115bd565b610ddc90836115a6565b90506000610deb888584611237565b9050600060038960038110610e0257610e02611521565b015482868b60038110610e1757610e17611521565b6020020151610e2691906115a6565b610e3091906115bd565b90506000805b6003811015610f53578a8103610e8557838686898460038110610e5b57610e5b611521565b6020020151610e6a919061156f565b610e7491906115bd565b610e7e91906115a6565b9150610ed6565b8585888360038110610e9957610e99611521565b6020020151610ea8919061156f565b610eb291906115bd565b878260038110610ec457610ec4611521565b6020020151610ed391906115a6565b91505b620f424082610ee7600160036115a6565b610ef290600461156f565b610eff600361012c61156f565b610f0991906115bd565b610f13919061156f565b610f1d91906115bd565b878260038110610f2f57610f2f611521565b60200201818151610f4091906115a6565b905250610f4c816115df565b9050610e36565b506000610f618b8887611237565b905060038b60038110610f7657610f76611521565b0154600182898e60038110610f8d57610f8d611521565b6020020151610f9c91906115a6565b610fa691906115a6565b610fb091906115bd565b9950610fbc8a846115a6565b985050505050505050509250929050565b6001600160a01b0382166000908152600a602052604081208054839290610ff59084906115a6565b92505081905550806009600082825461100e91906115a6565b90915550505050565b60008060036110276001826115a6565b6110329060036116dc565b61103e906103e861156f565b611048919061156f565b90506000805b600381101561108a5784816003811061106957611069611521565b6020020151611078908361158e565b9150611083816115df565b905061104e565b50806000805b60ff81101561118d578260005b60038110156110ee578881600381106110b8576110b8611521565b60200201516110c890600361156f565b6110d2868461156f565b6110dc91906115bd565b91506110e7816115df565b905061109d565b50839250806110ff6003600161158e565b611109919061156f565b846111156001896115a6565b61111f919061156f565b611129919061158e565b8461113583600361156f565b61113f888a61156f565b611149919061158e565b611153919061156f565b61115d91906115bd565b9350600161116b85856111ca565b1161117c5750919695505050505050565b50611186816115df565b9050611090565b5060405162461bcd60e51b815260206004820152601160248201527044206469646e277420636f6e766572676560781b6044820152606401610212565b6000818310156111e3576111de83836115a6565b6111ed565b6111ed82846115a6565b90505b92915050565b6001600160a01b0382166000908152600a60205260408120805483929061121e90849061158e565b92505081905550806009600082825461100e919061158e565b60008060036112476001826115a6565b6112529060036116dc565b61125e906103e861156f565b611268919061156f565b905060008381805b60038110156112e15788811461129e5787816003811061129257611292611521565b602002015191506112a3565b6112d1565b6112ad828561158e565b93506112ba82600361156f565b6112c4888561156f565b6112ce91906115bd565b92505b6112da816115df565b9050611270565b506112ed84600361156f565b6112f7878461156f565b61130191906115bd565b9150600061130f85886115bd565b611319908561158e565b9050600087815b60ff811015610d5657819250898483600261133b919061156f565b611345919061158e565b61134f91906115a6565b8661135a848061156f565b611364919061158e565b61136e91906115bd565b9150600161137c83856111ca565b11611390575096506113a095505050505050565b611399816115df565b9050611320565b9392505050565b60405180606001604052806003906020820280368337509192915050565b6000602082840312156113d757600080fd5b5035919050565b600080600080608085870312156113f457600080fd5b5050823594602084013594506040840135936060013592509050565b60008060006060848603121561142557600080fd5b505081359360208301359350604090920135919050565b60006020828403121561144e57600080fd5b81356001600160a01b03811681146113a057600080fd5b80606081018310156111f057600080fd5b6000806080838503121561148957600080fd5b6114938484611465565b946060939093013593505050565b600080604083850312156114b457600080fd5b50508035926020909101359150565b600080608083850312156114d657600080fd5b823591506114e78460208501611465565b90509250929050565b60608101818360005b60038110156115185781518352602092830192909101906001016114f9565b50505092915050565b634e487b7160e01b600052603260045260246000fd5b60006020828403121561154957600080fd5b815180151581146113a057600080fd5b634e487b7160e01b600052601160045260246000fd5b600081600019048311821515161561158957611589611559565b500290565b600082198211156115a1576115a1611559565b500190565b6000828210156115b8576115b8611559565b500390565b6000826115da57634e487b7160e01b600052601260045260246000fd5b500490565b6000600182016115f1576115f1611559565b5060010190565b600181815b8085111561163357816000190482111561161957611619611559565b8085161561162657918102915b93841c93908002906115fd565b509250929050565b60008261164a575060016111f0565b81611657575060006111f0565b816001811461166d576002811461167757611693565b60019150506111f0565b60ff84111561168857611688611559565b50506001821b6111f0565b5060208310610133831016604e8410600b84101617156116b6575081810a6111f0565b6116c083836115f8565b80600019048211156116d4576116d4611559565b029392505050565b60006111ed838361163b56fea26469706673582212203ba86d542cce8df44f5d2a2729e9e0c13c5583d469792aa39c9048f93cb5bf9364736f6c634300080d0033",
  "linkReferences": {},
  "deployedLinkReferences": {}
}